{
  "_format": "hh-sol-artifact-1",
  "contractName": "BatchTransferHelper",
  "sourceName": "contracts/helpers/BatchTransferHelper.sol",
  "abi": [
    {
      "inputs": [
        {
          "internalType": "address[]",
          "name": "to",
          "type": "address[]"
        },
        {
          "internalType": "address[]",
          "name": "registry",
          "type": "address[]"
        },
        {
          "internalType": "uint256[][]",
          "name": "id",
          "type": "uint256[][]"
        },
        {
          "internalType": "uint256[][]",
          "name": "amount",
          "type": "uint256[][]"
        },
        {
          "internalType": "bytes[]",
          "name": "data",
          "type": "bytes[]"
        }
      ],
      "name": "batchTransferERC1155",
      "outputs": [],
      "stateMutability": "nonpayable",
      "type": "function"
    },
    {
      "inputs": [
        {
          "internalType": "address[]",
          "name": "to",
          "type": "address[]"
        },
        {
          "internalType": "address[]",
          "name": "registry",
          "type": "address[]"
        },
        {
          "internalType": "uint256[]",
          "name": "id",
          "type": "uint256[]"
        }
      ],
      "name": "batchTransferERC721",
      "outputs": [],
      "stateMutability": "nonpayable",
      "type": "function"
    }
  ],
  "bytecode": "0x608060405234801561001057600080fd5b50610718806100206000396000f3fe608060405234801561001057600080fd5b50600436106100365760003560e01c80630e47f8d31461003b5780634b2c991a14610050575b600080fd5b61004e6100493660046104af565b610063565b005b61004e61005e3660046103c4565b610190565b84831461006f57600080fd5b84811461007b57600080fd5b60005b85811015610187578484828181106100a657634e487b7160e01b600052603260045260246000fd5b90506020020160208101906100bb9190610396565b6001600160a01b03166323b872dd338989858181106100ea57634e487b7160e01b600052603260045260246000fd5b90506020020160208101906100ff9190610396565b86868681811061011f57634e487b7160e01b600052603260045260246000fd5b905060200201356040518463ffffffff1660e01b81526004016101449392919061060b565b600060405180830381600087803b15801561015e57600080fd5b505af1158015610172573d6000803e3d6000fd5b5050505080610180906106bb565b905061007e565b50505050505050565b88871461019c57600080fd5b8885146101a857600080fd5b8883146101b457600080fd5b8881146101c057600080fd5b60005b89811015610340578888828181106101eb57634e487b7160e01b600052603260045260246000fd5b90506020020160208101906102009190610396565b6001600160a01b0316632eb2c2d6338d8d8581811061022f57634e487b7160e01b600052603260045260246000fd5b90506020020160208101906102449190610396565b8a8a8681811061026457634e487b7160e01b600052603260045260246000fd5b9050602002810190610276919061062f565b8a8a8881811061029657634e487b7160e01b600052603260045260246000fd5b90506020028101906102a8919061062f565b8a8a8a8181106102c857634e487b7160e01b600052603260045260246000fd5b90506020028101906102da9190610676565b6040518963ffffffff1660e01b81526004016102fd989796959493929190610592565b600060405180830381600087803b15801561031757600080fd5b505af115801561032b573d6000803e3d6000fd5b5050505080610339906106bb565b90506101c3565b5050505050505050505050565b60008083601f84011261035e578182fd5b50813567ffffffffffffffff811115610375578182fd5b602083019150836020808302850101111561038f57600080fd5b9250929050565b6000602082840312156103a7578081fd5b81356001600160a01b03811681146103bd578182fd5b9392505050565b60008060008060008060008060008060a08b8d0312156103e2578586fd5b8a3567ffffffffffffffff808211156103f9578788fd5b6104058e838f0161034d565b909c509a5060208d013591508082111561041d578788fd5b6104298e838f0161034d565b909a50985060408d0135915080821115610441578788fd5b61044d8e838f0161034d565b909850965060608d0135915080821115610465578586fd5b6104718e838f0161034d565b909650945060808d0135915080821115610489578384fd5b506104968d828e0161034d565b915080935050809150509295989b9194979a5092959850565b600080600080600080606087890312156104c7578182fd5b863567ffffffffffffffff808211156104de578384fd5b6104ea8a838b0161034d565b90985096506020890135915080821115610502578384fd5b61050e8a838b0161034d565b90965094506040890135915080821115610526578384fd5b5061053389828a0161034d565b979a9699509497509295939492505050565b60008284527f07ffffffffffffffffffffffffffffffffffffffffffffffffffffffffffffff831115610576578081fd5b6020830280836020870137939093016020019283525090919050565b60006001600160a01b03808b168352808a1660208401525060a060408301526105bf60a08301888a610545565b82810360608401526105d2818789610545565b905082810360808401528381528385602083013781602085830101526020601f19601f8601168201019150509998505050505050505050565b6001600160a01b039384168152919092166020820152604081019190915260600190565b6000808335601e19843603018112610645578283fd5b83018035915067ffffffffffffffff82111561065f578283fd5b602090810192508102360382131561038f57600080fd5b6000808335601e1984360301811261068c578283fd5b83018035915067ffffffffffffffff8211156106a6578283fd5b60200191503681900382131561038f57600080fd5b60006000198214156106db57634e487b7160e01b81526011600452602481fd5b506001019056fea2646970667358221220b61bbc0b0d370d38fcac2956347996af8bcd6702428d61ea8ca51a49f79da3e564736f6c63430008010033",
  "linkReferences": {},
  "deployedLinkReferences": {}
}