{
  "_format": "hh-sol-artifact-1",
  "contractName": "FixedPriceSaleModule",
  "sourceName": "contracts/modules/implementations/FixedPriceSaleModule.sol",
  "abi": [
    {
      "inputs": [
        {
          "internalType": "address",
          "name": "walletTemplate",
          "type": "address"
        }
      ],
      "stateMutability": "nonpayable",
      "type": "constructor"
    },
    {
      "anonymous": false,
      "inputs": [
        {
          "indexed": true,
          "internalType": "contract ShardedWallet",
          "name": "wallet",
          "type": "address"
        },
        {
          "indexed": true,
          "internalType": "address",
          "name": "curve",
          "type": "address"
        }
      ],
      "name": "NewBondingCurve",
      "type": "event"
    },
    {
      "anonymous": false,
      "inputs": [
        {
          "indexed": true,
          "internalType": "contract ShardedWallet",
          "name": "wallet",
          "type": "address"
        },
        {
          "indexed": true,
          "internalType": "address",
          "name": "from",
          "type": "address"
        },
        {
          "indexed": false,
          "internalType": "address",
          "name": "to",
          "type": "address"
        }
      ],
      "name": "OwnershipReclaimed",
      "type": "event"
    },
    {
      "anonymous": false,
      "inputs": [
        {
          "indexed": true,
          "internalType": "contract ShardedWallet",
          "name": "wallet",
          "type": "address"
        },
        {
          "indexed": true,
          "internalType": "address",
          "name": "from",
          "type": "address"
        },
        {
          "indexed": false,
          "internalType": "address",
          "name": "to",
          "type": "address"
        },
        {
          "indexed": false,
          "internalType": "uint256",
          "name": "count",
          "type": "uint256"
        }
      ],
      "name": "ShardsBought",
      "type": "event"
    },
    {
      "anonymous": false,
      "inputs": [
        {
          "indexed": true,
          "internalType": "contract ShardedWallet",
          "name": "wallet",
          "type": "address"
        },
        {
          "indexed": true,
          "internalType": "address",
          "name": "receiver",
          "type": "address"
        },
        {
          "indexed": false,
          "internalType": "uint256",
          "name": "count",
          "type": "uint256"
        }
      ],
      "name": "ShardsPrebuy",
      "type": "event"
    },
    {
      "anonymous": false,
      "inputs": [
        {
          "indexed": true,
          "internalType": "contract ShardedWallet",
          "name": "wallet",
          "type": "address"
        },
        {
          "indexed": true,
          "internalType": "address",
          "name": "from",
          "type": "address"
        },
        {
          "indexed": false,
          "internalType": "address",
          "name": "to",
          "type": "address"
        },
        {
          "indexed": false,
          "internalType": "uint256",
          "name": "count",
          "type": "uint256"
        }
      ],
      "name": "ShardsRedeemedFailure",
      "type": "event"
    },
    {
      "anonymous": false,
      "inputs": [
        {
          "indexed": true,
          "internalType": "contract ShardedWallet",
          "name": "wallet",
          "type": "address"
        },
        {
          "indexed": true,
          "internalType": "address",
          "name": "from",
          "type": "address"
        },
        {
          "indexed": false,
          "internalType": "address",
          "name": "to",
          "type": "address"
        },
        {
          "indexed": false,
          "internalType": "uint256",
          "name": "count",
          "type": "uint256"
        }
      ],
      "name": "ShardsRedeemedSuccess",
      "type": "event"
    },
    {
      "anonymous": false,
      "inputs": [
        {
          "indexed": true,
          "internalType": "bytes32",
          "name": "timer",
          "type": "bytes32"
        }
      ],
      "name": "TimerReset",
      "type": "event"
    },
    {
      "anonymous": false,
      "inputs": [
        {
          "indexed": true,
          "internalType": "bytes32",
          "name": "timer",
          "type": "bytes32"
        },
        {
          "indexed": false,
          "internalType": "uint256",
          "name": "deadline",
          "type": "uint256"
        }
      ],
      "name": "TimerStarted",
      "type": "event"
    },
    {
      "anonymous": false,
      "inputs": [
        {
          "indexed": true,
          "internalType": "bytes32",
          "name": "timer",
          "type": "bytes32"
        }
      ],
      "name": "TimerStopped",
      "type": "event"
    },
    {
      "anonymous": false,
      "inputs": [
        {
          "indexed": true,
          "internalType": "contract ShardedWallet",
          "name": "wallet",
          "type": "address"
        },
        {
          "indexed": true,
          "internalType": "address",
          "name": "from",
          "type": "address"
        },
        {
          "indexed": false,
          "internalType": "address",
          "name": "to",
          "type": "address"
        },
        {
          "indexed": false,
          "internalType": "uint256",
          "name": "value",
          "type": "uint256"
        }
      ],
      "name": "Withdraw",
      "type": "event"
    },
    {
      "inputs": [],
      "name": "CURVE_PREMINT_RESERVE",
      "outputs": [
        {
          "internalType": "address",
          "name": "",
          "type": "address"
        }
      ],
      "stateMutability": "view",
      "type": "function"
    },
    {
      "inputs": [],
      "name": "CURVE_TEMPLATE",
      "outputs": [
        {
          "internalType": "bytes32",
          "name": "",
          "type": "bytes32"
        }
      ],
      "stateMutability": "view",
      "type": "function"
    },
    {
      "inputs": [],
      "name": "PCT_ETH_TO_CURVE",
      "outputs": [
        {
          "internalType": "bytes32",
          "name": "",
          "type": "bytes32"
        }
      ],
      "stateMutability": "view",
      "type": "function"
    },
    {
      "inputs": [],
      "name": "PCT_SHARDS_NIFTEX",
      "outputs": [
        {
          "internalType": "bytes32",
          "name": "",
          "type": "bytes32"
        }
      ],
      "stateMutability": "view",
      "type": "function"
    },
    {
      "inputs": [
        {
          "internalType": "contract ShardedWallet",
          "name": "",
          "type": "address"
        }
      ],
      "name": "balance",
      "outputs": [
        {
          "internalType": "uint256",
          "name": "",
          "type": "uint256"
        }
      ],
      "stateMutability": "view",
      "type": "function"
    },
    {
      "inputs": [
        {
          "internalType": "contract ShardedWallet",
          "name": "",
          "type": "address"
        },
        {
          "internalType": "address",
          "name": "",
          "type": "address"
        }
      ],
      "name": "boughtShards",
      "outputs": [
        {
          "internalType": "uint256",
          "name": "",
          "type": "uint256"
        }
      ],
      "stateMutability": "view",
      "type": "function"
    },
    {
      "inputs": [
        {
          "internalType": "contract ShardedWallet",
          "name": "wallet",
          "type": "address"
        },
        {
          "internalType": "address",
          "name": "to",
          "type": "address"
        }
      ],
      "name": "buy",
      "outputs": [],
      "stateMutability": "payable",
      "type": "function"
    },
    {
      "inputs": [
        {
          "internalType": "contract ShardedWallet",
          "name": "wallet",
          "type": "address"
        }
      ],
      "name": "cleanup",
      "outputs": [],
      "stateMutability": "nonpayable",
      "type": "function"
    },
    {
      "inputs": [
        {
          "internalType": "contract ShardedWallet",
          "name": "wallet",
          "type": "address"
        }
      ],
      "name": "deadline",
      "outputs": [
        {
          "internalType": "uint256",
          "name": "",
          "type": "uint256"
        }
      ],
      "stateMutability": "view",
      "type": "function"
    },
    {
      "inputs": [],
      "name": "name",
      "outputs": [
        {
          "internalType": "string",
          "name": "",
          "type": "string"
        }
      ],
      "stateMutability": "view",
      "type": "function"
    },
    {
      "inputs": [
        {
          "internalType": "contract ShardedWallet",
          "name": "",
          "type": "address"
        },
        {
          "internalType": "address",
          "name": "",
          "type": "address"
        }
      ],
      "name": "premintShards",
      "outputs": [
        {
          "internalType": "uint256",
          "name": "",
          "type": "uint256"
        }
      ],
      "stateMutability": "view",
      "type": "function"
    },
    {
      "inputs": [
        {
          "internalType": "contract ShardedWallet",
          "name": "",
          "type": "address"
        }
      ],
      "name": "prices",
      "outputs": [
        {
          "internalType": "uint256",
          "name": "",
          "type": "uint256"
        }
      ],
      "stateMutability": "view",
      "type": "function"
    },
    {
      "inputs": [
        {
          "internalType": "contract ShardedWallet",
          "name": "",
          "type": "address"
        }
      ],
      "name": "recipients",
      "outputs": [
        {
          "internalType": "address",
          "name": "",
          "type": "address"
        }
      ],
      "stateMutability": "view",
      "type": "function"
    },
    {
      "inputs": [
        {
          "internalType": "contract ShardedWallet",
          "name": "wallet",
          "type": "address"
        },
        {
          "internalType": "address",
          "name": "to",
          "type": "address"
        }
      ],
      "name": "redeem",
      "outputs": [],
      "stateMutability": "nonpayable",
      "type": "function"
    },
    {
      "inputs": [
        {
          "internalType": "contract ShardedWallet",
          "name": "",
          "type": "address"
        }
      ],
      "name": "remainingShards",
      "outputs": [
        {
          "internalType": "uint256",
          "name": "",
          "type": "uint256"
        }
      ],
      "stateMutability": "view",
      "type": "function"
    },
    {
      "inputs": [
        {
          "internalType": "contract ShardedWallet",
          "name": "wallet",
          "type": "address"
        },
        {
          "internalType": "address",
          "name": "recipient",
          "type": "address"
        },
        {
          "internalType": "uint256",
          "name": "price",
          "type": "uint256"
        },
        {
          "internalType": "uint256",
          "name": "duration",
          "type": "uint256"
        },
        {
          "internalType": "uint256",
          "name": "totalSupply",
          "type": "uint256"
        },
        {
          "components": [
            {
              "internalType": "address",
              "name": "receiver",
              "type": "address"
            },
            {
              "internalType": "uint256",
              "name": "amount",
              "type": "uint256"
            }
          ],
          "internalType": "struct Allocation[]",
          "name": "premints",
          "type": "tuple[]"
        }
      ],
      "name": "setup",
      "outputs": [],
      "stateMutability": "nonpayable",
      "type": "function"
    },
    {
      "inputs": [],
      "name": "walletTemplate",
      "outputs": [
        {
          "internalType": "address",
          "name": "",
          "type": "address"
        }
      ],
      "stateMutability": "view",
      "type": "function"
    },
    {
      "inputs": [
        {
          "internalType": "contract ShardedWallet",
          "name": "wallet",
          "type": "address"
        }
      ],
      "name": "withdraw",
      "outputs": [],
      "stateMutability": "nonpayable",
      "type": "function"
    }
  ],
  "bytecode": "0x60a060405234801561001057600080fd5b50604051620021dc380380620021dc83398101604081905261003191610046565b60601b6001600160601b031916608052610074565b600060208284031215610057578081fd5b81516001600160a01b038116811461006d578182fd5b9392505050565b60805160601c6121426200009a600039600081816104000152610f8401526121426000f3fe6080604052600436106101295760003560e01c80636364cb6c116100a5578063cfed246b11610074578063e3d670d711610059578063e3d670d7146102f1578063eb82031214610311578063fbacefce1461033157610129565b8063cfed246b146102bc578063d664255a146102dc57610129565b80636364cb6c1461025f578063ad7fadc514610274578063bba06f2714610287578063cf7b446b146102a757610129565b80633da1ff82116100fc57806351cff8d9116100e157806351cff8d9146101fd5780635403b3941461021d5780635997b63e1461023d57610129565b80633da1ff82146101bb578063411bc7e7146101db57610129565b806306fdde031461012e5780632ed604e7146101595780633283b8031461018657806333637a871461019b575b600080fd5b34801561013a57600080fd5b50610143610351565b6040516101509190611e47565b60405180910390f35b34801561016557600080fd5b50610179610174366004611cb3565b61038a565b6040516101509190611e3e565b34801561019257600080fd5b5061017961039c565b3480156101a757600080fd5b506101796101b6366004611d0b565b6103c0565b3480156101c757600080fd5b506101796101d6366004611d0b565b6103dd565b3480156101e757600080fd5b506101fb6101f6366004611d43565b6103fa565b005b34801561020957600080fd5b506101fb610218366004611cb3565b610b33565b34801561022957600080fd5b50610179610238366004611cb3565b610f68565b34801561024957600080fd5b50610252610f82565b6040516101509190611e11565b34801561026b57600080fd5b50610179610fa6565b6101fb610282366004611d0b565b610fca565b34801561029357600080fd5b506101fb6102a2366004611d0b565b611220565b3480156102b357600080fd5b506101796114b7565b3480156102c857600080fd5b506101796102d7366004611cb3565b6114db565b3480156102e857600080fd5b506102526114ed565b3480156102fd57600080fd5b5061017961030c366004611cb3565b611505565b34801561031d57600080fd5b5061025261032c366004611cb3565b611517565b34801561033d57600080fd5b506101fb61034c366004611cb3565b611532565b6040518060400160405260148152806020017f4669786564507269636553616c654d6f64756c6500000000000000000000000081525081565b60046020526000908152604090205481565b7fd6b8be26fe56c2461902fe9d3f529cdf9f02521932f09d2107fe448477d59e9f81565b600660209081526000928352604080842090915290825290205481565b600560209081526000928352604080842090915290825290205481565b866104257f0000000000000000000000000000000000000000000000000000000000000000826116df565b61042e57600080fd5b6001600160a01b03881661044181611761565b6104665760405162461bcd60e51b815260040161045d90611ff9565b60405180910390fd5b8833806001600160a01b0316826001600160a01b0316638da5cb5b6040518163ffffffff1660e01b815260040160206040518083038186803b1580156104ab57600080fd5b505afa1580156104bf573d6000803e3d6000fd5b505050506040513d601f19601f820116820180604052508101906104e39190611ccf565b6001600160a01b0316146104f657600080fd5b8a6001600160a01b03166318160ddd6040518163ffffffff1660e01b815260040160206040518083038186803b15801561052f57600080fd5b505afa158015610543573d6000803e3d6000fd5b505050506040513d601f19601f820116820180604052508101906105679190611df6565b1561057157600080fd5b6040517f4e26463f0000000000000000000000000000000000000000000000000000000081526001600160a01b038c1690634e26463f906105b89030908b90600401611e25565b600060405180830381600087803b1580156105d257600080fd5b505af11580156105e6573d6000803e3d6000fd5b50506040517f36afba800000000000000000000000000000000000000000000000000000000081526001600160a01b038e1692506336afba80915061062f903090600401611e11565b600060405180830381600087803b15801561064957600080fd5b505af115801561065d573d6000803e3d6000fd5b505050506106778b6001600160a01b031660001b89611774565b6000670de0b6b3a76400008c6001600160a01b0316635aa6e6756040518163ffffffff1660e01b815260040160206040518083038186803b1580156106bb57600080fd5b505afa1580156106cf573d6000803e3d6000fd5b505050506040513d601f19601f820116820180604052508101906106f39190611ccf565b6001600160a01b03166301faf36c8e7ffbbd159a3fa06a90e6706a184ef085e653f08384af107f1a8507ee0e3b341aa660001b6040518363ffffffff1660e01b8152600401610743929190611e25565b60206040518083038186803b15801561075b57600080fd5b505afa15801561076f573d6000803e3d6000fd5b505050506040513d601f19601f820116820180604052508101906107939190611df6565b61079d908a61208d565b6107a7919061206d565b905060008c6001600160a01b0316635aa6e6756040518163ffffffff1660e01b815260040160206040518083038186803b1580156107e457600080fd5b505afa1580156107f8573d6000803e3d6000fd5b505050506040513d601f19601f8201168201806040525081019061081c9190611ccf565b6001600160a01b0316630927d6046040518163ffffffff1660e01b815260040160206040518083038186803b15801561085457600080fd5b505afa158015610868573d6000803e3d6000fd5b505050506040513d601f19601f8201168201806040525081019061088c9190611ccf565b6001600160a01b03808f16600090815260056020908152604080832093851683529290522083905590506108c0828a6120ac565b9850806001600160a01b03168d6001600160a01b03167f69807b61b47d45b65ae1234a541f04883c49ca35f4b705dd7098e9da0eb940f8846040516109059190611e3e565b60405180910390a3505060005b85811015610ac65786868281811061093a57634e487b7160e01b600052603260045260246000fd5b90506040020160200135600560008e6001600160a01b03166001600160a01b03168152602001908152602001600020600089898581811061098b57634e487b7160e01b600052603260045260246000fd5b6109a19260206040909202019081019150611cb3565b6001600160a01b03166001600160a01b0316815260200190815260200160002060008282546109d09190612055565b9091555087905086828181106109f657634e487b7160e01b600052603260045260246000fd5b9050604002016020013588610a0b91906120ac565b9750868682818110610a2d57634e487b7160e01b600052603260045260246000fd5b610a439260206040909202019081019150611cb3565b6001600160a01b03168c6001600160a01b03167f69807b61b47d45b65ae1234a541f04883c49ca35f4b705dd7098e9da0eb940f8898985818110610a9757634e487b7160e01b600052603260045260246000fd5b90506040020160200135604051610aae9190611e3e565b60405180910390a3610abf816120c3565b9050610912565b505050506001600160a01b03978816600090815260016020908152604080832080547fffffffffffffffffffffffff0000000000000000000000000000000000000000169a909b169990991790995560028952878120969096555050600490955292909120919091555050565b80610b466001600160a01b0382166117fa565b80610b6757506001600160a01b038116600090815260046020526040902054155b610b7057600080fd5b6001600160a01b03808316600090815260016020908152604080832054600490925290912054911690610ea0576001600160a01b0383166000818152600560209081526040808320733cc5b802b34a42db4cbe41ae3ad5c06e1a4481c9845282528083205481517f5aa6e67500000000000000000000000000000000000000000000000000000000815291519094670de0b6b3a7640000939092635aa6e6759260048083019392829003018186803b158015610c2b57600080fd5b505afa158015610c3f573d6000803e3d6000fd5b505050506040513d601f19601f82011682018060405250810190610c639190611ccf565b604051627ebcdb60e21b81526001600160a01b0391909116906301faf36c90610cb29089907fd6b8be26fe56c2461902fe9d3f529cdf9f02521932f09d2107fe448477d59e9f90600401611e25565b60206040518083038186803b158015610cca57600080fd5b505afa158015610cde573d6000803e3d6000fd5b505050506040513d601f19601f82011682018060405250810190610d029190611df6565b6001600160a01b038716600090815260036020526040902054610d25919061208d565b610d2f919061206d565b6001600160a01b03861660009081526003602052604081205491925090610d579083906120ac565b90506000610d6687848661181f565b6001600160a01b03808916600090815260036020908152604080832083905560058252808320733cc5b802b34a42db4cbe41ae3ad5c06e1a4481c984529091528120559091508116610e405760405163a9059cbb60e01b81526001600160a01b0388169063a9059cbb90610de09088908890600401611e25565b602060405180830381600087803b158015610dfa57600080fd5b505af1158015610e0e573d6000803e3d6000fd5b505050506040513d601f19601f82011682018060405250810190610e329190611ceb565b50610e3d8383612055565b91505b610e4a8583611ae5565b336001600160a01b0316876001600160a01b03167f3115d1449a7b732c986cba18244e897a450f61e1bb8d589cd2e69e6c8924f9f78785604051610e8f929190611e25565b60405180910390a350505050610f63565b6040517ff2fde38b0000000000000000000000000000000000000000000000000000000081526001600160a01b0384169063f2fde38b90610ee5908490600401611e11565b600060405180830381600087803b158015610eff57600080fd5b505af1158015610f13573d6000803e3d6000fd5b50505050336001600160a01b0316836001600160a01b03167f88ad5720ab58f3f3c19f34229d334358c71e227e2dcd92144999e9657b62bfe483604051610f5a9190611e11565b60405180910390a35b505050565b6000610f7c6001600160a01b038316611b81565b92915050565b7f000000000000000000000000000000000000000000000000000000000000000081565b7ffbbd159a3fa06a90e6706a184ef085e653f08384af107f1a8507ee0e3b341aa681565b81610fdd6001600160a01b038216611b93565b801561100057506001600160a01b03811660009081526004602052604090205415155b61100957600080fd5b6001600160a01b038216733cc5b802b34a42db4cbe41ae3ad5c06e1a4481c9141561103357600080fd5b6001600160a01b0383166000908152600260205260408120549061108b8261106334670de0b6b3a764000061208d565b61106d919061206d565b6001600160a01b038716600090815260046020526040902054611bb4565b90506000670de0b6b3a76400006110a2848461208d565b6110ac919061206d565b6001600160a01b0387166000908152600360205260408120805492935083929091906110d9908490612055565b90915550506001600160a01b03808716600090815260066020908152604080832093891683529290529081208054849290611115908490612055565b90915550506001600160a01b038616600090815260046020526040812080548492906111429084906120ac565b90915550506001600160a01b0386166000908152600460205260409020546111b857856001600160a01b031663715018a66040518163ffffffff1660e01b8152600401600060405180830381600087803b15801561119f57600080fd5b505af11580156111b3573d6000803e3d6000fd5b505050505b6111cb336111c683346120ac565b611ae5565b336001600160a01b0316866001600160a01b03167f238e3bccfa0594503e6ecfa4f8595fd564903445338b3e088888ad8d050490768785604051611210929190611e25565b60405180910390a3505050505050565b816112336001600160a01b0382166117fa565b8061125457506001600160a01b038116600090815260046020526040902054155b61125d57600080fd5b6001600160a01b038216733cc5b802b34a42db4cbe41ae3ad5c06e1a4481c9141561128757600080fd5b6001600160a01b03808416600081815260056020908152604080832094871680845294825280832080548585526006845282852096855295835281842080549185905584905593835260049091529020546113bf5760006112e88284612055565b60405163a9059cbb60e01b81529091506001600160a01b0387169063a9059cbb906113199088908590600401611e25565b602060405180830381600087803b15801561133357600080fd5b505af1158015611347573d6000803e3d6000fd5b505050506040513d601f19601f8201168201806040525081019061136b9190611ceb565b50336001600160a01b0316866001600160a01b03167f601889ddcf03fa641ecfeab68a8c8bef0c5a935bb5725275fbb8b4c978d4eb9787846040516113b1929190611e25565b60405180910390a3506114b0565b6001600160a01b038516600090815260026020526040812054670de0b6b3a7640000906113ec908461208d565b6113f6919061206d565b6001600160a01b0387166000908152600360205260408120805492935083929091906114239084906120ac565b9091555061143390508284612055565b6001600160a01b0387166000908152600460205260408120805490919061145b908490612055565b9091555061146b90508582611ae5565b336001600160a01b0316866001600160a01b03167f8b65b4d395c9d0c8e226601c55009f48dfe26d1805928bb98b5f66d75562bde18785604051611210929190611e25565b5050505050565b7f3cec7c13345ae32e688f81840d184c63978bb776762e026e7e61d891bb2dd84b81565b60026020526000908152604090205481565b733cc5b802b34a42db4cbe41ae3ad5c06e1a4481c981565b60036020526000908152604090205481565b6001602052600090815260409020546001600160a01b031681565b806115456001600160a01b0382166117fa565b8061156657506001600160a01b038116600090815260046020526040902054155b61156f57600080fd5b6000826001600160a01b03166318160ddd6040518163ffffffff1660e01b815260040160206040518083038186803b1580156115aa57600080fd5b505afa1580156115be573d6000803e3d6000fd5b505050506040513d601f19601f820116820180604052508101906115e29190611df6565b6001600160a01b0384166000818152600560209081526040808320733cc5b802b34a42db4cbe41ae3ad5c06e1a4481c98452825280832054938352600490915290205491925082916116349190612055565b146116515760405162461bcd60e51b815260040161045d90611f9c565b6040517f91b98e0e0000000000000000000000000000000000000000000000000000000081526001600160a01b038416906391b98e0e906116989030908590600401611e25565b600060405180830381600087803b1580156116b257600080fd5b505af11580156116c6573d6000803e3d6000fd5b50505050610f63836001600160a01b031660001b611bca565b6000808360601b90506040517f363d3d373d3d3d363d7300000000000000000000000000000000000000000000815281600a8201527f5af43d82803e903d91602b57fd5bf30000000000000000000000000000000000601e82015260408101602d600082873c600d810151600d83015114815183511416935050505092915050565b6000908152602081905260409020541590565b8161177e81611761565b61179a5760405162461bcd60e51b815260040161045d90611ff9565b60006117a68342612055565b600085815260208190526040908190208290555190915084907f605574b2967b0bcc75b287d9a63f28d379642ae66f3e2ed42e1679cd992915f5906117ec908490611e3e565b60405180910390a250505050565b60008181526020819052604081205480158015906118185750428111155b9392505050565b600080846001600160a01b0316635aa6e6756040518163ffffffff1660e01b815260040160206040518083038186803b15801561185b57600080fd5b505afa15801561186f573d6000803e3d6000fd5b505050506040513d601f19601f820116820180604052508101906118939190611ccf565b604051627ebcdb60e21b81529091506000906001600160a01b038316906301faf36c906118e69089907f3cec7c13345ae32e688f81840d184c63978bb776762e026e7e61d891bb2dd84b90600401611e25565b60206040518083038186803b1580156118fe57600080fd5b505afa158015611912573d6000803e3d6000fd5b505050506040513d601f19601f820116820180604052508101906119369190611df6565b90506001600160a01b03811615611ad957600061195c826001600160a01b038916611c2c565b6040517f095ea7b30000000000000000000000000000000000000000000000000000000081529091506001600160a01b0388169063095ea7b3906119a69084908990600401611e25565b602060405180830381600087803b1580156119c057600080fd5b505af11580156119d4573d6000803e3d6000fd5b505050506040513d601f19601f820116820180604052508101906119f89190611ceb565b506001600160a01b038781166000908152600160209081526040808320546002909252918290205491517fe37259e90000000000000000000000000000000000000000000000000000000081528385169363e37259e9938b93611a65938c938f9392169190600401612030565b6000604051808303818588803b158015611a7e57600080fd5b505af1158015611a92573d6000803e3d6000fd5b50506040516001600160a01b0380861694508b1692507fa7b435b2c8fd44462584564800dad818928fb919addaa633e861153cb83f8f339150600090a39250611818915050565b50600095945050505050565b80471015611b055760405162461bcd60e51b815260040161045d90611f65565b6000826001600160a01b031682604051611b1e90611e0e565b60006040518083038185875af1925050503d8060008114611b5b576040519150601f19603f3d011682016040523d82523d6000602084013e611b60565b606091505b5050905080610f635760405162461bcd60e51b815260040161045d90611f08565b60009081526020819052604090205490565b60008181526020819052604081205480158015906118185750421092915050565b6000818310611bc35781611818565b5090919050565b80611bd4816117fa565b611bf05760405162461bcd60e51b815260040161045d90611e9a565b6000828152602081905260408082208290555183917f20d65b5dc0ebfa40301979533e073e22a1d96c44638276e67a662e5da7215fba91a25050565b60006040517f3d602d80600a3d3981f3363d3d373d3d3d363d7300000000000000000000000081528360601b60148201527f5af43d82803e903d91602b57fd5bf300000000000000000000000000000000006028820152826037826000f59150506001600160a01b038116610f7c5760405162461bcd60e51b815260040161045d90611ed1565b600060208284031215611cc4578081fd5b8135611818816120f4565b600060208284031215611ce0578081fd5b8151611818816120f4565b600060208284031215611cfc578081fd5b81518015158114611818578182fd5b60008060408385031215611d1d578081fd5b8235611d28816120f4565b91506020830135611d38816120f4565b809150509250929050565b600080600080600080600060c0888a031215611d5d578283fd5b8735611d68816120f4565b96506020880135611d78816120f4565b955060408801359450606088013593506080880135925060a088013567ffffffffffffffff80821115611da9578384fd5b818a0191508a601f830112611dbc578384fd5b813581811115611dca578485fd5b8b6020604083028501011115611dde578485fd5b60208301945080935050505092959891949750929550565b600060208284031215611e07578081fd5b5051919050565b90565b6001600160a01b0391909116815260200190565b6001600160a01b03929092168252602082015260400190565b90815260200190565b6000602080835283518082850152825b81811015611e7357858101830151858201604001528201611e57565b81811115611e845783604083870101525b50601f01601f1916929092016040019392505050565b6020808252601a908201527f5769746854696d6572733a206f6e6c79416674657254696d6572000000000000604082015260600190565b60208082526017908201527f455243313136373a2063726561746532206661696c6564000000000000000000604082015260600190565b6020808252603a908201527f416464726573733a20756e61626c6520746f2073656e642076616c75652c207260408201527f6563697069656e74206d61792068617665207265766572746564000000000000606082015260800190565b6020808252601d908201527f416464726573733a20696e73756666696369656e742062616c616e6365000000604082015260600190565b60208082526035908201527f43726f776473616c652064697274792c206e6f7420616c6c20616c6c6f63617460408201527f696f6e2068617665206265656e20636c61696d65640000000000000000000000606082015260800190565b6020808252601b908201527f5769746854696d6572733a206f6e6c794265666f726554696d65720000000000604082015260600190565b9384526001600160a01b03928316602085015291166040830152606082015260800190565b60008219821115612068576120686120de565b500190565b60008261208857634e487b7160e01b81526012600452602481fd5b500490565b60008160001904831182151516156120a7576120a76120de565b500290565b6000828210156120be576120be6120de565b500390565b60006000198214156120d7576120d76120de565b5060010190565b634e487b7160e01b600052601160045260246000fd5b6001600160a01b038116811461210957600080fd5b5056fea2646970667358221220503a9c9b9c61c4f7016969e1d67945e95966740794b1471ef948de705aad332e64736f6c63430008010033",
  "linkReferences": {},
  "deployedLinkReferences": {}
}