{
  "_format": "hh-sol-artifact-1",
  "contractName": "ShardedWalletFactory",
  "sourceName": "contracts/modules/implementations/ShardedWalletFactory.sol",
  "abi": [
    {
      "inputs": [
        {
          "internalType": "address",
          "name": "walletTemplate",
          "type": "address"
        }
      ],
      "stateMutability": "nonpayable",
      "type": "constructor"
    },
    {
      "anonymous": false,
      "inputs": [
        {
          "indexed": false,
          "internalType": "address",
          "name": "instance",
          "type": "address"
        }
      ],
      "name": "NewInstance",
      "type": "event"
    },
    {
      "inputs": [
        {
          "internalType": "address",
          "name": "governance_",
          "type": "address"
        },
        {
          "internalType": "address",
          "name": "owner_",
          "type": "address"
        },
        {
          "internalType": "string",
          "name": "name_",
          "type": "string"
        },
        {
          "internalType": "string",
          "name": "symbol_",
          "type": "string"
        },
        {
          "internalType": "address",
          "name": "artistWallet_",
          "type": "address"
        }
      ],
      "name": "mintWallet",
      "outputs": [
        {
          "internalType": "address",
          "name": "instance",
          "type": "address"
        }
      ],
      "stateMutability": "nonpayable",
      "type": "function"
    },
    {
      "inputs": [],
      "name": "name",
      "outputs": [
        {
          "internalType": "string",
          "name": "",
          "type": "string"
        }
      ],
      "stateMutability": "view",
      "type": "function"
    },
    {
      "inputs": [],
      "name": "template",
      "outputs": [
        {
          "internalType": "address",
          "name": "",
          "type": "address"
        }
      ],
      "stateMutability": "view",
      "type": "function"
    },
    {
      "inputs": [],
      "name": "walletTemplate",
      "outputs": [
        {
          "internalType": "address",
          "name": "",
          "type": "address"
        }
      ],
      "stateMutability": "view",
      "type": "function"
    }
  ],
  "bytecode": "0x60c060405234801561001057600080fd5b506040516105cb3803806105cb83398101604081905261002f91610049565b60601b6001600160601b031916608081905260a052610077565b60006020828403121561005a578081fd5b81516001600160a01b0381168114610070578182fd5b9392505050565b60805160601c60a05160601c6105226100a96000396000818161019901526101c20152600061017501526105226000f3fe608060405234801561001057600080fd5b506004361061004c5760003560e01c806306fdde0314610051578063107eef281461006f5780635997b63e1461008f5780636f2ddd9314610097575b600080fd5b61005961009f565b6040516100669190610462565b60405180910390f35b61008261007d36600461032e565b6100d8565b60405161006691906103f7565b610082610173565b610082610197565b6040518060400160405260148152806020017f5368617264656457616c6c6574466163746f727900000000000000000000000081525081565b60006100e26101bb565b6040517f362925c20000000000000000000000000000000000000000000000000000000081529091506001600160a01b0382169063362925c290610136908b908b908b908b908b908b908b9060040161040b565b600060405180830381600087803b15801561015057600080fd5b505af1158015610164573d6000803e3d6000fd5b50505050979650505050505050565b7f000000000000000000000000000000000000000000000000000000000000000081565b7f000000000000000000000000000000000000000000000000000000000000000081565b60006101e67f0000000000000000000000000000000000000000000000000000000000000000610222565b90507f39a773f10839d86923d91d5ce7d6642f2f63a95d850495abb1f162e38aa04ea58160405161021791906103f7565b60405180910390a190565b60006040517f3d602d80600a3d3981f3363d3d373d3d3d363d7300000000000000000000000081528260601b60148201527f5af43d82803e903d91602b57fd5bf3000000000000000000000000000000000060288201526037816000f09150506001600160a01b0381166102cb576040517f08c379a00000000000000000000000000000000000000000000000000000000081526004016102c2906104b5565b60405180910390fd5b919050565b80356001600160a01b03811681146102cb57600080fd5b60008083601f8401126102f8578182fd5b50813567ffffffffffffffff81111561030f578182fd5b60208301915083602082850101111561032757600080fd5b9250929050565b600080600080600080600060a0888a031215610348578283fd5b610351886102d0565b965061035f602089016102d0565b9550604088013567ffffffffffffffff8082111561037b578485fd5b6103878b838c016102e7565b909750955060608a013591508082111561039f578485fd5b506103ac8a828b016102e7565b90945092506103bf9050608089016102d0565b905092959891949750929550565b60008284528282602086013780602084860101526020601f19601f85011685010190509392505050565b6001600160a01b0391909116815260200190565b60006001600160a01b03808a168352808916602084015260a0604084015261043760a08401888a6103cd565b838103606085015261044a8187896103cd565b92505080841660808401525098975050505050505050565b6000602080835283518082850152825b8181101561048e57858101830151858201604001528201610472565b8181111561049f5783604083870101525b50601f01601f1916929092016040019392505050565b60208082526016908201527f455243313136373a20637265617465206661696c65640000000000000000000060408201526060019056fea2646970667358221220ebbe72ddc2358b745f5adb492d5515fc9fe059ddc213880807ce11c28a0a266b64736f6c63430008010033",
  "linkReferences": {},
  "deployedLinkReferences": {}
}