{
  "_format": "hh-sol-artifact-1",
  "contractName": "BasicDistributionModule",
  "sourceName": "contracts/modules/implementations/BasicDistributionModule.sol",
  "abi": [
    {
      "inputs": [
        {
          "internalType": "address",
          "name": "walletTemplate",
          "type": "address"
        }
      ],
      "stateMutability": "nonpayable",
      "type": "constructor"
    },
    {
      "inputs": [],
      "name": "name",
      "outputs": [
        {
          "internalType": "string",
          "name": "",
          "type": "string"
        }
      ],
      "stateMutability": "view",
      "type": "function"
    },
    {
      "inputs": [
        {
          "internalType": "contract ShardedWallet",
          "name": "wallet",
          "type": "address"
        },
        {
          "components": [
            {
              "internalType": "address",
              "name": "receiver",
              "type": "address"
            },
            {
              "internalType": "uint256",
              "name": "amount",
              "type": "uint256"
            }
          ],
          "internalType": "struct Allocation[]",
          "name": "mints",
          "type": "tuple[]"
        }
      ],
      "name": "setup",
      "outputs": [],
      "stateMutability": "nonpayable",
      "type": "function"
    },
    {
      "inputs": [],
      "name": "walletTemplate",
      "outputs": [
        {
          "internalType": "address",
          "name": "",
          "type": "address"
        }
      ],
      "stateMutability": "view",
      "type": "function"
    }
  ],
  "bytecode": "0x60a060405234801561001057600080fd5b506040516105af3803806105af83398101604081905261002f91610044565b60601b6001600160601b031916608052610072565b600060208284031215610055578081fd5b81516001600160a01b038116811461006b578182fd5b9392505050565b60805160601c61051f610090600039600061032e015261051f6000f3fe608060405234801561001057600080fd5b50600436106100415760003560e01c806306fdde031461004657806310e60f6d146100645780635997b63e14610079575b600080fd5b61004e61008e565b60405161005b9190610457565b60405180910390f35b61007761007236600461038f565b6100c7565b005b61008161032c565b60405161005b919061042a565b6040518060400160405260178152806020017f4261736963446973747269627574696f6e4d6f64756c6500000000000000000081525081565b8233806001600160a01b0316826001600160a01b0316638da5cb5b6040518163ffffffff1660e01b815260040160206040518083038186803b15801561010c57600080fd5b505afa158015610120573d6000803e3d6000fd5b505050506040513d601f19601f820116820180604052508101906101449190610373565b6001600160a01b03161461015757600080fd5b846001600160a01b03166318160ddd6040518163ffffffff1660e01b815260040160206040518083038186803b15801561019057600080fd5b505afa1580156101a4573d6000803e3d6000fd5b505050506040513d601f19601f820116820180604052508101906101c89190610412565b156101d257600080fd5b6040517f36afba800000000000000000000000000000000000000000000000000000000081526001600160a01b038616906336afba80906102189060009060040161042a565b600060405180830381600087803b15801561023257600080fd5b505af1158015610246573d6000803e3d6000fd5b5050505060005b8381101561032457856001600160a01b0316634e26463f86868481811061028457634e487b7160e01b600052603260045260246000fd5b61029a9260206040909202019081019150610350565b8787858181106102ba57634e487b7160e01b600052603260045260246000fd5b905060400201602001356040518363ffffffff1660e01b81526004016102e192919061043e565b600060405180830381600087803b1580156102fb57600080fd5b505af115801561030f573d6000803e3d6000fd5b505050508061031d906104aa565b905061024d565b505050505050565b7f000000000000000000000000000000000000000000000000000000000000000081565b600060208284031215610361578081fd5b813561036c816104d1565b9392505050565b600060208284031215610384578081fd5b815161036c816104d1565b6000806000604084860312156103a3578182fd5b83356103ae816104d1565b9250602084013567ffffffffffffffff808211156103ca578384fd5b818601915086601f8301126103dd578384fd5b8135818111156103eb578485fd5b8760206040830285010111156103ff578485fd5b6020830194508093505050509250925092565b600060208284031215610423578081fd5b5051919050565b6001600160a01b0391909116815260200190565b6001600160a01b03929092168252602082015260400190565b6000602080835283518082850152825b8181101561048357858101830151858201604001528201610467565b818111156104945783604083870101525b50601f01601f1916929092016040019392505050565b60006000198214156104ca57634e487b7160e01b81526011600452602481fd5b5060010190565b6001600160a01b03811681146104e657600080fd5b5056fea2646970667358221220f2f7f92deda60a6ec287e36c27d41671c399759f7aaad5de68b8d42bdfa451cc64736f6c63430008010033",
  "linkReferences": {},
  "deployedLinkReferences": {}
}