{
  "_format": "hh-sol-artifact-1",
  "contractName": "Governance",
  "sourceName": "contracts/governance/Governance.sol",
  "abi": [
    {
      "anonymous": false,
      "inputs": [
        {
          "indexed": true,
          "internalType": "bytes32",
          "name": "key",
          "type": "bytes32"
        },
        {
          "indexed": true,
          "internalType": "uint256",
          "name": "value",
          "type": "uint256"
        },
        {
          "indexed": true,
          "internalType": "address",
          "name": "wallet",
          "type": "address"
        }
      ],
      "name": "ConfigSet",
      "type": "event"
    },
    {
      "anonymous": false,
      "inputs": [
        {
          "indexed": true,
          "internalType": "bytes32",
          "name": "key",
          "type": "bytes32"
        },
        {
          "indexed": true,
          "internalType": "uint256",
          "name": "value",
          "type": "uint256"
        }
      ],
      "name": "GlobalConfigSet",
      "type": "event"
    },
    {
      "anonymous": false,
      "inputs": [
        {
          "indexed": true,
          "internalType": "bytes32",
          "name": "key",
          "type": "bytes32"
        },
        {
          "indexed": true,
          "internalType": "bool",
          "name": "value",
          "type": "bool"
        }
      ],
      "name": "GlobalKeySet",
      "type": "event"
    },
    {
      "anonymous": false,
      "inputs": [
        {
          "indexed": true,
          "internalType": "bytes4",
          "name": "sig",
          "type": "bytes4"
        },
        {
          "indexed": true,
          "internalType": "address",
          "name": "value",
          "type": "address"
        }
      ],
      "name": "GlobalModuleSet",
      "type": "event"
    },
    {
      "anonymous": false,
      "inputs": [
        {
          "indexed": false,
          "internalType": "address",
          "name": "wallet",
          "type": "address"
        },
        {
          "indexed": true,
          "internalType": "address",
          "name": "module",
          "type": "address"
        },
        {
          "indexed": false,
          "internalType": "bool",
          "name": "disabled",
          "type": "bool"
        }
      ],
      "name": "ModuleDisabled",
      "type": "event"
    },
    {
      "anonymous": false,
      "inputs": [
        {
          "indexed": true,
          "internalType": "bytes4",
          "name": "sig",
          "type": "bytes4"
        },
        {
          "indexed": true,
          "internalType": "address",
          "name": "value",
          "type": "address"
        },
        {
          "indexed": true,
          "internalType": "address",
          "name": "wallet",
          "type": "address"
        }
      ],
      "name": "ModuleSet",
      "type": "event"
    },
    {
      "anonymous": false,
      "inputs": [
        {
          "indexed": true,
          "internalType": "bytes32",
          "name": "role",
          "type": "bytes32"
        },
        {
          "indexed": true,
          "internalType": "bytes32",
          "name": "previousAdminRole",
          "type": "bytes32"
        },
        {
          "indexed": true,
          "internalType": "bytes32",
          "name": "newAdminRole",
          "type": "bytes32"
        }
      ],
      "name": "RoleAdminChanged",
      "type": "event"
    },
    {
      "anonymous": false,
      "inputs": [
        {
          "indexed": true,
          "internalType": "bytes32",
          "name": "role",
          "type": "bytes32"
        },
        {
          "indexed": true,
          "internalType": "address",
          "name": "account",
          "type": "address"
        },
        {
          "indexed": true,
          "internalType": "address",
          "name": "sender",
          "type": "address"
        }
      ],
      "name": "RoleGranted",
      "type": "event"
    },
    {
      "anonymous": false,
      "inputs": [
        {
          "indexed": true,
          "internalType": "bytes32",
          "name": "role",
          "type": "bytes32"
        },
        {
          "indexed": true,
          "internalType": "address",
          "name": "account",
          "type": "address"
        },
        {
          "indexed": true,
          "internalType": "address",
          "name": "sender",
          "type": "address"
        }
      ],
      "name": "RoleRevoked",
      "type": "event"
    },
    {
      "inputs": [],
      "name": "AUTHORIZATION_RATIO",
      "outputs": [
        {
          "internalType": "bytes32",
          "name": "",
          "type": "bytes32"
        }
      ],
      "stateMutability": "view",
      "type": "function"
    },
    {
      "inputs": [],
      "name": "DEFAULT_ADMIN_ROLE",
      "outputs": [
        {
          "internalType": "bytes32",
          "name": "",
          "type": "bytes32"
        }
      ],
      "stateMutability": "view",
      "type": "function"
    },
    {
      "inputs": [],
      "name": "GLOBAL_CONFIG",
      "outputs": [
        {
          "internalType": "address",
          "name": "",
          "type": "address"
        }
      ],
      "stateMutability": "view",
      "type": "function"
    },
    {
      "inputs": [],
      "name": "MODULE_ROLE",
      "outputs": [
        {
          "internalType": "bytes32",
          "name": "",
          "type": "bytes32"
        }
      ],
      "stateMutability": "view",
      "type": "function"
    },
    {
      "inputs": [
        {
          "internalType": "address",
          "name": "wallet",
          "type": "address"
        },
        {
          "internalType": "address",
          "name": "module",
          "type": "address"
        },
        {
          "internalType": "bool",
          "name": "disabled",
          "type": "bool"
        }
      ],
      "name": "disableModuleForWallet",
      "outputs": [],
      "stateMutability": "nonpayable",
      "type": "function"
    },
    {
      "inputs": [
        {
          "internalType": "address",
          "name": "wallet",
          "type": "address"
        },
        {
          "internalType": "bytes32",
          "name": "key",
          "type": "bytes32"
        }
      ],
      "name": "getConfig",
      "outputs": [
        {
          "internalType": "uint256",
          "name": "",
          "type": "uint256"
        }
      ],
      "stateMutability": "view",
      "type": "function"
    },
    {
      "inputs": [
        {
          "internalType": "bytes32",
          "name": "key",
          "type": "bytes32"
        }
      ],
      "name": "getGlobalOnlyKey",
      "outputs": [
        {
          "internalType": "bool",
          "name": "",
          "type": "bool"
        }
      ],
      "stateMutability": "view",
      "type": "function"
    },
    {
      "inputs": [
        {
          "internalType": "address",
          "name": "wallet",
          "type": "address"
        },
        {
          "internalType": "bytes4",
          "name": "sig",
          "type": "bytes4"
        }
      ],
      "name": "getModule",
      "outputs": [
        {
          "internalType": "address",
          "name": "",
          "type": "address"
        }
      ],
      "stateMutability": "view",
      "type": "function"
    },
    {
      "inputs": [],
      "name": "getNiftexWallet",
      "outputs": [
        {
          "internalType": "address",
          "name": "",
          "type": "address"
        }
      ],
      "stateMutability": "view",
      "type": "function"
    },
    {
      "inputs": [
        {
          "internalType": "bytes32",
          "name": "role",
          "type": "bytes32"
        }
      ],
      "name": "getRoleAdmin",
      "outputs": [
        {
          "internalType": "bytes32",
          "name": "",
          "type": "bytes32"
        }
      ],
      "stateMutability": "view",
      "type": "function"
    },
    {
      "inputs": [
        {
          "internalType": "bytes32",
          "name": "role",
          "type": "bytes32"
        },
        {
          "internalType": "uint256",
          "name": "index",
          "type": "uint256"
        }
      ],
      "name": "getRoleMember",
      "outputs": [
        {
          "internalType": "address",
          "name": "",
          "type": "address"
        }
      ],
      "stateMutability": "view",
      "type": "function"
    },
    {
      "inputs": [
        {
          "internalType": "bytes32",
          "name": "role",
          "type": "bytes32"
        }
      ],
      "name": "getRoleMemberCount",
      "outputs": [
        {
          "internalType": "uint256",
          "name": "",
          "type": "uint256"
        }
      ],
      "stateMutability": "view",
      "type": "function"
    },
    {
      "inputs": [
        {
          "internalType": "bytes32",
          "name": "role",
          "type": "bytes32"
        },
        {
          "internalType": "address",
          "name": "account",
          "type": "address"
        }
      ],
      "name": "grantRole",
      "outputs": [],
      "stateMutability": "nonpayable",
      "type": "function"
    },
    {
      "inputs": [
        {
          "internalType": "bytes32",
          "name": "role",
          "type": "bytes32"
        },
        {
          "internalType": "address",
          "name": "account",
          "type": "address"
        }
      ],
      "name": "hasRole",
      "outputs": [
        {
          "internalType": "bool",
          "name": "",
          "type": "bool"
        }
      ],
      "stateMutability": "view",
      "type": "function"
    },
    {
      "inputs": [],
      "name": "initialize",
      "outputs": [],
      "stateMutability": "nonpayable",
      "type": "function"
    },
    {
      "inputs": [
        {
          "internalType": "address",
          "name": "wallet",
          "type": "address"
        },
        {
          "internalType": "address",
          "name": "user",
          "type": "address"
        }
      ],
      "name": "isAuthorized",
      "outputs": [
        {
          "internalType": "bool",
          "name": "",
          "type": "bool"
        }
      ],
      "stateMutability": "view",
      "type": "function"
    },
    {
      "inputs": [
        {
          "internalType": "address",
          "name": "wallet",
          "type": "address"
        },
        {
          "internalType": "address",
          "name": "module",
          "type": "address"
        }
      ],
      "name": "isModule",
      "outputs": [
        {
          "internalType": "bool",
          "name": "",
          "type": "bool"
        }
      ],
      "stateMutability": "view",
      "type": "function"
    },
    {
      "inputs": [
        {
          "internalType": "bytes32",
          "name": "role",
          "type": "bytes32"
        },
        {
          "internalType": "address",
          "name": "account",
          "type": "address"
        }
      ],
      "name": "renounceRole",
      "outputs": [],
      "stateMutability": "nonpayable",
      "type": "function"
    },
    {
      "inputs": [
        {
          "internalType": "bytes32",
          "name": "role",
          "type": "bytes32"
        },
        {
          "internalType": "address",
          "name": "account",
          "type": "address"
        }
      ],
      "name": "revokeRole",
      "outputs": [],
      "stateMutability": "nonpayable",
      "type": "function"
    },
    {
      "inputs": [
        {
          "internalType": "bytes32",
          "name": "key",
          "type": "bytes32"
        },
        {
          "internalType": "uint256",
          "name": "value",
          "type": "uint256"
        }
      ],
      "name": "setConfig",
      "outputs": [],
      "stateMutability": "nonpayable",
      "type": "function"
    },
    {
      "inputs": [
        {
          "internalType": "bytes32",
          "name": "key",
          "type": "bytes32"
        },
        {
          "internalType": "uint256",
          "name": "value",
          "type": "uint256"
        }
      ],
      "name": "setGlobalConfig",
      "outputs": [],
      "stateMutability": "nonpayable",
      "type": "function"
    },
    {
      "inputs": [
        {
          "internalType": "bytes32",
          "name": "key",
          "type": "bytes32"
        },
        {
          "internalType": "bool",
          "name": "value",
          "type": "bool"
        }
      ],
      "name": "setGlobalKey",
      "outputs": [],
      "stateMutability": "nonpayable",
      "type": "function"
    },
    {
      "inputs": [
        {
          "internalType": "bytes4",
          "name": "sig",
          "type": "bytes4"
        },
        {
          "internalType": "address",
          "name": "value",
          "type": "address"
        }
      ],
      "name": "setGlobalModule",
      "outputs": [],
      "stateMutability": "nonpayable",
      "type": "function"
    },
    {
      "inputs": [
        {
          "internalType": "bytes4",
          "name": "sig",
          "type": "bytes4"
        },
        {
          "internalType": "address",
          "name": "value",
          "type": "address"
        }
      ],
      "name": "setModule",
      "outputs": [],
      "stateMutability": "nonpayable",
      "type": "function"
    },
    {
      "inputs": [
        {
          "internalType": "bytes4",
          "name": "interfaceId",
          "type": "bytes4"
        }
      ],
      "name": "supportsInterface",
      "outputs": [
        {
          "internalType": "bool",
          "name": "",
          "type": "bool"
        }
      ],
      "stateMutability": "view",
      "type": "function"
    }
  ],
  "bytecode": "0x608060405234801561001057600080fd5b50611335806100206000396000f3fe608060405234801561001057600080fd5b50600436106101a35760003560e01c80638129fc1c116100ee578063afc172b911610097578063ca15c87311610071578063ca15c87314610327578063d547741f1461033a578063dd0691fa1461034d578063edcad28214610360576101a3565b8063afc172b9146102f9578063b61f53c714610301578063bf1eeb6b14610314576101a3565b8063a217fddf116100c8578063a217fddf146102d6578063a6b520c0146102de578063a9d62ca4146102e6576101a3565b80638129fc1c146102a85780639010d07c146102b057806391d14854146102c3576101a3565b806336568abe116101505780636c9cd4a51161012a5780636c9cd4a51461026f57806377073983146102825780637a92553e14610295576101a3565b806336568abe146102415780633b863f961461025457806365e4ad9e1461025c576101a3565b806315fe96dc1161018157806315fe96dc14610206578063248a9ca31461021b5780632f2ff15d1461022e576101a3565b806301faf36c146101a857806301ffc9a7146101d15780630927d604146101f1575b600080fd5b6101bb6101b6366004610fa8565b610373565b6040516101c891906110fe565b60405180910390f35b6101e46101df366004611077565b6103ef565b6040516101c891906110f3565b6101f9610435565b6040516101c891906110c4565b610219610214366004611056565b610446565b005b6101bb610229366004610ffa565b610491565b61021961023c366004611012565b6104a6565b61021961024f366004611012565b6104cd565b6101bb6104ef565b6101e461026a366004610f34565b610513565b61021961027d366004611091565b610675565b610219610290366004611056565b610717565b6102196102a3366004610f66565b610789565b610219610810565b6101f96102be366004611056565b61081d565b6101e46102d1366004611012565b61083c565b6101bb610865565b6101bb61086a565b6101f96102f4366004610fd1565b61088e565b6101f9610865565b6101e461030f366004610ffa565b610918565b610219610322366004611091565b61092d565b6101bb610335366004610ffa565b6109a6565b610219610348366004611012565b6109bd565b61021961035b366004611034565b6109c7565b6101e461036e366004610f34565b610a27565b60008181527fac33ff75c19e70fe83507db0d683fd3465c996598dc972688b7ace676c89077b60209081526040808320546001600160a01b03861684526002835281842085855283528184205460059093529083205490919060ff16806103d8575080155b6103e257806103e4565b815b925050505b92915050565b60006001600160e01b031982167f5a05180f00000000000000000000000000000000000000000000000000000000148061042d575061042d82610a8a565b90505b919050565b6000610441818061081d565b905090565b33600081815260026020908152604080832086845290915280822084905551839185917fd106312fdacf4b15754f725de8bebd90459e2368fd9c149553f0fe8d51a156ee9190a45050565b60009081526020819052604090206001015490565b6104b08282610ac8565b60008281526001602052604090206104c89082610b0f565b505050565b6104d78282610b24565b60008281526001602052604090206104c89082610b66565b7f9f280153bc61a10b7af5e9374ead4471b587c3bdcab2b4ab6bdd38136e8544a181565b60006105d7670de0b6b3a764000061054b857f9f280153bc61a10b7af5e9374ead4471b587c3bdcab2b4ab6bdd38136e8544a1610373565b856001600160a01b03166318160ddd6040518163ffffffff1660e01b815260040160206040518083038186803b15801561058457600080fd5b505afa158015610598573d6000803e3d6000fd5b505050506040513d601f19601f820116820180604052508101906105bc91906110ac565b6105c691906112b3565b6105d09190611293565b6001610b7b565b6040517f70a082310000000000000000000000000000000000000000000000000000000081526001600160a01b038516906370a082319061061c9086906004016110c4565b60206040518083038186803b15801561063457600080fd5b505afa158015610648573d6000803e3d6000fd5b505050506040513d601f19601f8201168201806040525081019061066c91906110ac565b10159392505050565b61068060003361083c565b61068957600080fd5b6001600160e01b0319821660008181527f17ef568e3e12ab5b9c7254a8d58478811de00f9e6eb34345acd53bf8fd09d3ec6020526040808220805473ffffffffffffffffffffffffffffffffffffffff19166001600160a01b03861690811790915590519092917fcd24af604e2c68e134dcda2b7ef7a55abe49359da9727a06c88d1ec369970e4c91a35050565b61072260003361083c565b61072b57600080fd5b60008281527fac33ff75c19e70fe83507db0d683fd3465c996598dc972688b7ace676c89077b602052604080822083905551829184917fcf1014faee467aa6f3af7c21539d04bb0b136fc7b46ca487395109cc9ae09b3d9190a35050565b61079460003361083c565b61079d57600080fd5b6001600160a01b0383811660009081526003602090815260408083209386168084529390915290819020805460ff1916841515179055517f93c44b545e736937c6bc924dafefba7eae3ec0eff6daadf984af913876ca42589061080390869085906110d8565b60405180910390a2505050565b61081b600033610b92565b565b60008281526001602052604081206108359083610b9c565b9392505050565b6000918252602082815260408084206001600160a01b0393909316845291905290205460ff1690565b600081565b7f5098275140f5753db46c42f6e139939968848633a1298402189fdfdafa69b45281565b6001600160e01b0319811660008181527f17ef568e3e12ab5b9c7254a8d58478811de00f9e6eb34345acd53bf8fd09d3ec60209081526040808320546001600160a01b038781168552600484528285209585529483528184205460059093529083205492939081169291169060ff16806103d857506001600160a01b038116156103e257806103e4565b60009081526005602052604090205460ff1690565b3360008181526004602090815260408083206001600160e01b031987168085529252808320805473ffffffffffffffffffffffffffffffffffffffff19166001600160a01b038716908117909155905190927f47147d51a586156cea67ea7933d8c746428be1ee60851352ed3678f30ed3b5b691a45050565b600081815260016020526040812061042d90610ba8565b6104d78282610bb3565b6109d260003361083c565b6109db57600080fd5b600082815260056020526040808220805460ff19168415159081179091559051909184917f988c8730259020f85ba16fedfdd49bf63c978f5fe5e452bc841be9486c3ec49e9190a35050565b6000610a537f5098275140f5753db46c42f6e139939968848633a1298402189fdfdafa69b4528361083c565b80156108355750506001600160a01b03918216600090815260036020908152604080832093909416825291909152205460ff161590565b60006001600160e01b031982167f7965db0b00000000000000000000000000000000000000000000000000000000148061042d575061042d82610bdb565b610adc610ad483610491565b6102d1610c0d565b610b015760405162461bcd60e51b8152600401610af890611164565b60405180910390fd5b610b0b8282610c11565b5050565b6000610835836001600160a01b038416610c96565b610b2c610c0d565b6001600160a01b0316816001600160a01b031614610b5c5760405162461bcd60e51b8152600401610af89061121e565b610b0b8282610ce0565b6000610835836001600160a01b038416610d63565b600081831015610b8b5781610835565b5090919050565b6104b08282610b01565b60006108358383610e80565b600061042d82610ed9565b610bbf610ad483610491565b610b5c5760405162461bcd60e51b8152600401610af8906111c1565b6001600160e01b031981167f01ffc9a70000000000000000000000000000000000000000000000000000000014919050565b3390565b610c1b828261083c565b610b0b576000828152602081815260408083206001600160a01b03851684529091529020805460ff19166001179055610c52610c0d565b6001600160a01b0316816001600160a01b0316837f2f8788117e7eff1d82e926ec794901d17c78024a50270940304540a733656f0d60405160405180910390a45050565b6000610ca28383610edd565b610cd8575081546001818101845560008481526020808220909301849055845484825282860190935260409020919091556103e9565b5060006103e9565b610cea828261083c565b15610b0b576000828152602081815260408083206001600160a01b03851684529091529020805460ff19169055610d1f610c0d565b6001600160a01b0316816001600160a01b0316837ff6391f5c32d9c69d2a47ea670b442974b53935d1edc7fd64eb21e047a839171b60405160405180910390a45050565b60008181526001830160205260408120548015610e76576000610d876001836112d2565b8554909150600090610d9b906001906112d2565b90506000866000018281548110610dc257634e487b7160e01b600052603260045260246000fd5b9060005260206000200154905080876000018481548110610df357634e487b7160e01b600052603260045260246000fd5b600091825260209091200155610e0a83600161127b565b60008281526001890160205260409020558654879080610e3a57634e487b7160e01b600052603160045260246000fd5b600190038181906000526020600020016000905590558660010160008781526020019081526020016000206000905560019450505050506103e9565b60009150506103e9565b81546000908210610ea35760405162461bcd60e51b8152600401610af890611107565b826000018281548110610ec657634e487b7160e01b600052603260045260246000fd5b9060005260206000200154905092915050565b5490565b60009081526001919091016020526040902054151590565b80356001600160a01b038116811461043057600080fd5b8035801515811461043057600080fd5b80356001600160e01b03198116811461043057600080fd5b60008060408385031215610f46578182fd5b610f4f83610ef5565b9150610f5d60208401610ef5565b90509250929050565b600080600060608486031215610f7a578081fd5b610f8384610ef5565b9250610f9160208501610ef5565b9150610f9f60408501610f0c565b90509250925092565b60008060408385031215610fba578182fd5b610fc383610ef5565b946020939093013593505050565b60008060408385031215610fe3578182fd5b610fec83610ef5565b9150610f5d60208401610f1c565b60006020828403121561100b578081fd5b5035919050565b60008060408385031215611024578182fd5b82359150610f5d60208401610ef5565b60008060408385031215611046578182fd5b82359150610f5d60208401610f0c565b60008060408385031215611068578182fd5b50508035926020909101359150565b600060208284031215611088578081fd5b61083582610f1c565b600080604083850312156110a3578182fd5b610f4f83610f1c565b6000602082840312156110bd578081fd5b5051919050565b6001600160a01b0391909116815260200190565b6001600160a01b039290921682521515602082015260400190565b901515815260200190565b90815260200190565b60208082526022908201527f456e756d657261626c655365743a20696e646578206f7574206f6620626f756e60408201527f6473000000000000000000000000000000000000000000000000000000000000606082015260800190565b6020808252602f908201527f416363657373436f6e74726f6c3a2073656e646572206d75737420626520616e60408201527f2061646d696e20746f206772616e740000000000000000000000000000000000606082015260800190565b60208082526030908201527f416363657373436f6e74726f6c3a2073656e646572206d75737420626520616e60408201527f2061646d696e20746f207265766f6b6500000000000000000000000000000000606082015260800190565b6020808252602f908201527f416363657373436f6e74726f6c3a2063616e206f6e6c792072656e6f756e636560408201527f20726f6c657320666f722073656c660000000000000000000000000000000000606082015260800190565b6000821982111561128e5761128e6112e9565b500190565b6000826112ae57634e487b7160e01b81526012600452602481fd5b500490565b60008160001904831182151516156112cd576112cd6112e9565b500290565b6000828210156112e4576112e46112e9565b500390565b634e487b7160e01b600052601160045260246000fdfea2646970667358221220c873d36a643c4046ef79ee7886bcb02b6aa8a1ad625099cc7ab683f3036a7ea964736f6c63430008010033",
  "linkReferences": {},
  "deployedLinkReferences": {}
}