{
  "_format": "hh-sol-artifact-1",
  "contractName": "ShardedWallet",
  "sourceName": "contracts/wallet/ShardedWallet.sol",
  "abi": [
    {
      "inputs": [],
      "stateMutability": "nonpayable",
      "type": "constructor"
    },
    {
      "anonymous": false,
      "inputs": [
        {
          "indexed": true,
          "internalType": "address",
          "name": "owner",
          "type": "address"
        },
        {
          "indexed": true,
          "internalType": "address",
          "name": "spender",
          "type": "address"
        },
        {
          "indexed": false,
          "internalType": "uint256",
          "name": "value",
          "type": "uint256"
        }
      ],
      "name": "Approval",
      "type": "event"
    },
    {
      "anonymous": false,
      "inputs": [
        {
          "indexed": true,
          "internalType": "address",
          "name": "oldArtist",
          "type": "address"
        },
        {
          "indexed": true,
          "internalType": "address",
          "name": "newArtist",
          "type": "address"
        }
      ],
      "name": "ArtistUpdated",
      "type": "event"
    },
    {
      "anonymous": false,
      "inputs": [
        {
          "indexed": true,
          "internalType": "address",
          "name": "to",
          "type": "address"
        },
        {
          "indexed": false,
          "internalType": "uint256",
          "name": "value",
          "type": "uint256"
        },
        {
          "indexed": false,
          "internalType": "bytes",
          "name": "data",
          "type": "bytes"
        }
      ],
      "name": "Execute",
      "type": "event"
    },
    {
      "anonymous": false,
      "inputs": [
        {
          "indexed": true,
          "internalType": "address",
          "name": "oldGovernance",
          "type": "address"
        },
        {
          "indexed": true,
          "internalType": "address",
          "name": "newGovernance",
          "type": "address"
        }
      ],
      "name": "GovernanceUpdated",
      "type": "event"
    },
    {
      "anonymous": false,
      "inputs": [
        {
          "indexed": true,
          "internalType": "address",
          "name": "module",
          "type": "address"
        },
        {
          "indexed": true,
          "internalType": "address",
          "name": "to",
          "type": "address"
        },
        {
          "indexed": false,
          "internalType": "uint256",
          "name": "value",
          "type": "uint256"
        },
        {
          "indexed": false,
          "internalType": "bytes",
          "name": "data",
          "type": "bytes"
        }
      ],
      "name": "ModuleExecute",
      "type": "event"
    },
    {
      "anonymous": false,
      "inputs": [
        {
          "indexed": true,
          "internalType": "address",
          "name": "previousOwner",
          "type": "address"
        },
        {
          "indexed": true,
          "internalType": "address",
          "name": "newOwner",
          "type": "address"
        }
      ],
      "name": "OwnershipTransferred",
      "type": "event"
    },
    {
      "anonymous": false,
      "inputs": [
        {
          "indexed": true,
          "internalType": "address",
          "name": "sender",
          "type": "address"
        },
        {
          "indexed": false,
          "internalType": "uint256",
          "name": "value",
          "type": "uint256"
        },
        {
          "indexed": false,
          "internalType": "bytes",
          "name": "data",
          "type": "bytes"
        }
      ],
      "name": "Received",
      "type": "event"
    },
    {
      "anonymous": false,
      "inputs": [
        {
          "indexed": true,
          "internalType": "address",
          "name": "from",
          "type": "address"
        },
        {
          "indexed": true,
          "internalType": "address",
          "name": "to",
          "type": "address"
        },
        {
          "indexed": false,
          "internalType": "uint256",
          "name": "value",
          "type": "uint256"
        }
      ],
      "name": "Transfer",
      "type": "event"
    },
    {
      "stateMutability": "payable",
      "type": "fallback"
    },
    {
      "inputs": [],
      "name": "ALLOW_GOVERNANCE_UPGRADE",
      "outputs": [
        {
          "internalType": "bytes32",
          "name": "",
          "type": "bytes32"
        }
      ],
      "stateMutability": "view",
      "type": "function"
    },
    {
      "inputs": [
        {
          "internalType": "address",
          "name": "owner",
          "type": "address"
        },
        {
          "internalType": "address",
          "name": "spender",
          "type": "address"
        }
      ],
      "name": "allowance",
      "outputs": [
        {
          "internalType": "uint256",
          "name": "",
          "type": "uint256"
        }
      ],
      "stateMutability": "view",
      "type": "function"
    },
    {
      "inputs": [
        {
          "internalType": "address",
          "name": "spender",
          "type": "address"
        },
        {
          "internalType": "uint256",
          "name": "amount",
          "type": "uint256"
        }
      ],
      "name": "approve",
      "outputs": [
        {
          "internalType": "bool",
          "name": "",
          "type": "bool"
        }
      ],
      "stateMutability": "nonpayable",
      "type": "function"
    },
    {
      "inputs": [
        {
          "internalType": "address",
          "name": "spender",
          "type": "address"
        },
        {
          "internalType": "uint256",
          "name": "value",
          "type": "uint256"
        }
      ],
      "name": "approveAndCall",
      "outputs": [
        {
          "internalType": "bool",
          "name": "",
          "type": "bool"
        }
      ],
      "stateMutability": "nonpayable",
      "type": "function"
    },
    {
      "inputs": [
        {
          "internalType": "address",
          "name": "spender",
          "type": "address"
        },
        {
          "internalType": "uint256",
          "name": "value",
          "type": "uint256"
        },
        {
          "internalType": "bytes",
          "name": "data",
          "type": "bytes"
        }
      ],
      "name": "approveAndCall",
      "outputs": [
        {
          "internalType": "bool",
          "name": "",
          "type": "bool"
        }
      ],
      "stateMutability": "nonpayable",
      "type": "function"
    },
    {
      "inputs": [],
      "name": "artistWallet",
      "outputs": [
        {
          "internalType": "address",
          "name": "",
          "type": "address"
        }
      ],
      "stateMutability": "view",
      "type": "function"
    },
    {
      "inputs": [
        {
          "internalType": "address",
          "name": "account",
          "type": "address"
        }
      ],
      "name": "balanceOf",
      "outputs": [
        {
          "internalType": "uint256",
          "name": "",
          "type": "uint256"
        }
      ],
      "stateMutability": "view",
      "type": "function"
    },
    {
      "inputs": [
        {
          "internalType": "uint256",
          "name": "amount",
          "type": "uint256"
        }
      ],
      "name": "burn",
      "outputs": [],
      "stateMutability": "nonpayable",
      "type": "function"
    },
    {
      "inputs": [
        {
          "internalType": "address",
          "name": "account",
          "type": "address"
        },
        {
          "internalType": "uint256",
          "name": "amount",
          "type": "uint256"
        }
      ],
      "name": "burnFrom",
      "outputs": [],
      "stateMutability": "nonpayable",
      "type": "function"
    },
    {
      "inputs": [],
      "name": "decimals",
      "outputs": [
        {
          "internalType": "uint8",
          "name": "",
          "type": "uint8"
        }
      ],
      "stateMutability": "view",
      "type": "function"
    },
    {
      "inputs": [
        {
          "internalType": "address",
          "name": "spender",
          "type": "address"
        },
        {
          "internalType": "uint256",
          "name": "subtractedValue",
          "type": "uint256"
        }
      ],
      "name": "decreaseAllowance",
      "outputs": [
        {
          "internalType": "bool",
          "name": "",
          "type": "bool"
        }
      ],
      "stateMutability": "nonpayable",
      "type": "function"
    },
    {
      "inputs": [
        {
          "internalType": "address",
          "name": "to",
          "type": "address"
        },
        {
          "internalType": "uint256",
          "name": "value",
          "type": "uint256"
        },
        {
          "internalType": "bytes",
          "name": "data",
          "type": "bytes"
        }
      ],
      "name": "execute",
      "outputs": [],
      "stateMutability": "nonpayable",
      "type": "function"
    },
    {
      "inputs": [],
      "name": "governance",
      "outputs": [
        {
          "internalType": "contract IGovernance",
          "name": "",
          "type": "address"
        }
      ],
      "stateMutability": "view",
      "type": "function"
    },
    {
      "inputs": [
        {
          "internalType": "address",
          "name": "spender",
          "type": "address"
        },
        {
          "internalType": "uint256",
          "name": "addedValue",
          "type": "uint256"
        }
      ],
      "name": "increaseAllowance",
      "outputs": [
        {
          "internalType": "bool",
          "name": "",
          "type": "bool"
        }
      ],
      "stateMutability": "nonpayable",
      "type": "function"
    },
    {
      "inputs": [
        {
          "internalType": "address",
          "name": "governance_",
          "type": "address"
        },
        {
          "internalType": "address",
          "name": "minter_",
          "type": "address"
        },
        {
          "internalType": "string",
          "name": "name_",
          "type": "string"
        },
        {
          "internalType": "string",
          "name": "symbol_",
          "type": "string"
        },
        {
          "internalType": "address",
          "name": "artistWallet_",
          "type": "address"
        }
      ],
      "name": "initialize",
      "outputs": [],
      "stateMutability": "nonpayable",
      "type": "function"
    },
    {
      "inputs": [
        {
          "internalType": "address",
          "name": "from",
          "type": "address"
        },
        {
          "internalType": "uint256",
          "name": "value",
          "type": "uint256"
        }
      ],
      "name": "moduleBurn",
      "outputs": [],
      "stateMutability": "nonpayable",
      "type": "function"
    },
    {
      "inputs": [
        {
          "internalType": "address",
          "name": "to",
          "type": "address"
        },
        {
          "internalType": "uint256",
          "name": "value",
          "type": "uint256"
        },
        {
          "internalType": "bytes",
          "name": "data",
          "type": "bytes"
        }
      ],
      "name": "moduleExecute",
      "outputs": [],
      "stateMutability": "nonpayable",
      "type": "function"
    },
    {
      "inputs": [
        {
          "internalType": "address",
          "name": "to",
          "type": "address"
        },
        {
          "internalType": "uint256",
          "name": "value",
          "type": "uint256"
        }
      ],
      "name": "moduleMint",
      "outputs": [],
      "stateMutability": "nonpayable",
      "type": "function"
    },
    {
      "inputs": [
        {
          "internalType": "address",
          "name": "from",
          "type": "address"
        },
        {
          "internalType": "address",
          "name": "to",
          "type": "address"
        },
        {
          "internalType": "uint256",
          "name": "value",
          "type": "uint256"
        }
      ],
      "name": "moduleTransfer",
      "outputs": [],
      "stateMutability": "nonpayable",
      "type": "function"
    },
    {
      "inputs": [
        {
          "internalType": "address",
          "name": "to",
          "type": "address"
        }
      ],
      "name": "moduleTransferOwnership",
      "outputs": [],
      "stateMutability": "nonpayable",
      "type": "function"
    },
    {
      "inputs": [],
      "name": "name",
      "outputs": [
        {
          "internalType": "string",
          "name": "",
          "type": "string"
        }
      ],
      "stateMutability": "view",
      "type": "function"
    },
    {
      "inputs": [],
      "name": "owner",
      "outputs": [
        {
          "internalType": "address",
          "name": "",
          "type": "address"
        }
      ],
      "stateMutability": "view",
      "type": "function"
    },
    {
      "inputs": [],
      "name": "renounceOwnership",
      "outputs": [],
      "stateMutability": "nonpayable",
      "type": "function"
    },
    {
      "inputs": [
        {
          "internalType": "address",
          "name": "newOwner",
          "type": "address"
        }
      ],
      "name": "retrieve",
      "outputs": [],
      "stateMutability": "nonpayable",
      "type": "function"
    },
    {
      "inputs": [],
      "name": "symbol",
      "outputs": [
        {
          "internalType": "string",
          "name": "",
          "type": "string"
        }
      ],
      "stateMutability": "view",
      "type": "function"
    },
    {
      "inputs": [],
      "name": "totalSupply",
      "outputs": [
        {
          "internalType": "uint256",
          "name": "",
          "type": "uint256"
        }
      ],
      "stateMutability": "view",
      "type": "function"
    },
    {
      "inputs": [
        {
          "internalType": "address",
          "name": "recipient",
          "type": "address"
        },
        {
          "internalType": "uint256",
          "name": "amount",
          "type": "uint256"
        }
      ],
      "name": "transfer",
      "outputs": [
        {
          "internalType": "bool",
          "name": "",
          "type": "bool"
        }
      ],
      "stateMutability": "nonpayable",
      "type": "function"
    },
    {
      "inputs": [
        {
          "internalType": "address",
          "name": "sender",
          "type": "address"
        },
        {
          "internalType": "address",
          "name": "recipient",
          "type": "address"
        },
        {
          "internalType": "uint256",
          "name": "amount",
          "type": "uint256"
        }
      ],
      "name": "transferFrom",
      "outputs": [
        {
          "internalType": "bool",
          "name": "",
          "type": "bool"
        }
      ],
      "stateMutability": "nonpayable",
      "type": "function"
    },
    {
      "inputs": [
        {
          "internalType": "address",
          "name": "newOwner",
          "type": "address"
        }
      ],
      "name": "transferOwnership",
      "outputs": [],
      "stateMutability": "nonpayable",
      "type": "function"
    },
    {
      "inputs": [
        {
          "internalType": "address",
          "name": "newArtistWallet",
          "type": "address"
        }
      ],
      "name": "updateArtistWallet",
      "outputs": [],
      "stateMutability": "nonpayable",
      "type": "function"
    },
    {
      "inputs": [
        {
          "internalType": "address",
          "name": "newGovernance",
          "type": "address"
        }
      ],
      "name": "updateGovernance",
      "outputs": [],
      "stateMutability": "nonpayable",
      "type": "function"
    },
    {
      "stateMutability": "payable",
      "type": "receive"
    }
  ],
  "bytecode": "0x608060405234801561001057600080fd5b50600680546001600160a01b03191661dead179055612689806100346000396000f3fe6080604052600436106101db5760003560e01c806370a0823111610102578063a457c2d711610095578063cae9ca5111610064578063cae9ca51146106fc578063dd62ed3e1461071c578063df01e4bf1461073c578063f2fde38b1461075c57610229565b8063a457c2d71461067c578063a9059cbb1461069c578063b2561263146106bc578063b61d27f6146106dc57610229565b806391b98e0e116100d157806391b98e0e1461061257806395d89b41146106325780639eb996d414610647578063a3342fba1461066757610229565b806370a08231146105a8578063715018a6146105c857806379cc6790146105dd5780638da5cb5b146105fd57610229565b80633177029f1161017a57806342966c681161014957806342966c68146105265780634e26463f146105465780635aa6e6751461056657806363f10c6d1461058857610229565b80633177029f146104a6578063362925c2146104c657806336afba80146104e6578063395093511461050657610229565b80630a79309b116101b65780630a79309b1461042d57806318160ddd1461044f57806323b872dd14610464578063313ce5671461048457610229565b80627cae03146103b357806306fdde03146103de578063095ea7b31461040057610229565b36610229576040805160208101825260008152905133917f89e8e1406eb88cbdf591b5eeb74b6d10cbda6e6ff4190b83ed226e54a1e6c4fb9161021f913491612452565b60405180910390a2005b6006546040517fa9d62ca40000000000000000000000000000000000000000000000000000000081526000916001600160a01b03169063a9d62ca4906102809030906001600160e01b031986351690600401611d1d565b60206040518083038186803b15801561029857600080fd5b505afa1580156102ac573d6000803e3d6000fd5b505050506040513d601f19601f820116820180604052508101906102d09190611997565b90506001600160a01b038116158015906102ee57506102ee8161077c565b1561036a576000816001600160a01b0316600036604051610310929190611caa565b600060405180830381855afa9150503d806000811461034b576040519150601f19603f3d011682016040523d82523d6000602084013e610350565b606091505b505090503d6000803e808015610365573d6000f35b3d6000fd5b336001600160a01b03167f89e8e1406eb88cbdf591b5eeb74b6d10cbda6e6ff4190b83ed226e54a1e6c4fb346000366040516103a89392919061241c565b60405180910390a250005b3480156103bf57600080fd5b506103c861081e565b6040516103d59190611d7c565b60405180910390f35b3480156103ea57600080fd5b506103f3610842565b6040516103d59190611d85565b34801561040c57600080fd5b5061042061041b366004611ad1565b6108d5565b6040516103d59190611d71565b34801561043957600080fd5b5061044d61044836600461197b565b6108f2565b005b34801561045b57600080fd5b506103c8610919565b34801561047057600080fd5b5061042061047f366004611a91565b61091f565b34801561049057600080fd5b506104996109c1565b6040516103d5919061246b565b3480156104b257600080fd5b506104206104c1366004611ad1565b6109c6565b3480156104d257600080fd5b5061044d6104e13660046119eb565b6109e2565b3480156104f257600080fd5b5061044d61050136600461197b565b610ae7565b34801561051257600080fd5b50610420610521366004611ad1565b610b0c565b34801561053257600080fd5b5061044d610541366004611c4e565b610b5b565b34801561055257600080fd5b5061044d610561366004611ad1565b610b6c565b34801561057257600080fd5b5061057b610b9f565b6040516103d59190611cd6565b34801561059457600080fd5b5061044d6105a3366004611afc565b610bae565b3480156105b457600080fd5b506103c86105c336600461197b565b610c88565b3480156105d457600080fd5b5061044d610ca3565b3480156105e957600080fd5b5061044d6105f8366004611ad1565b610ce4565b34801561060957600080fd5b5061057b610d39565b34801561061e57600080fd5b5061044d61062d366004611ad1565b610d48565b34801561063e57600080fd5b506103f3610d77565b34801561065357600080fd5b5061044d610662366004611a91565b610d86565b34801561067357600080fd5b5061057b610db6565b34801561068857600080fd5b50610420610697366004611ad1565b610dc5565b3480156106a857600080fd5b506104206106b7366004611ad1565b610e40565b3480156106c857600080fd5b5061044d6106d736600461197b565b610e54565b3480156106e857600080fd5b5061044d6106f7366004611afc565b610fad565b34801561070857600080fd5b50610420610717366004611b56565b611070565b34801561072857600080fd5b506103c86107373660046119b3565b6111ba565b34801561074857600080fd5b5061044d61075736600461197b565b6111e5565b34801561076857600080fd5b5061044d61077736600461197b565b611266565b6006546040517fedcad2820000000000000000000000000000000000000000000000000000000081526000916001600160a01b03169063edcad282906107c89030908690600401611cea565b60206040518083038186803b1580156107e057600080fd5b505afa1580156107f4573d6000803e3d6000fd5b505050506040513d601f19601f820116820180604052508101906108189190611c06565b92915050565b7fedde61aea0459bc05d70dd3441790ccfb6c17980a380201b00eca6f9ef50452a81565b606060048054610851906124d8565b80601f016020809104026020016040519081016040528092919081815260200182805461087d906124d8565b80156108ca5780601f1061089f576101008083540402835291602001916108ca565b820191906000526020600020905b8154815290600101906020018083116108ad57829003601f168201915b505050505090505b90565b60006108e96108e26112c1565b84846112c5565b50600192915050565b61090d33610908610901610919565b6001611379565b611390565b61091681611476565b50565b60035490565b600061092c8484846114d1565b6001600160a01b03841660009081526002602052604081208161094d6112c1565b6001600160a01b03166001600160a01b03168152602001908152602001600020549050828110156109995760405162461bcd60e51b81526004016109909061214b565b60405180910390fd5b6109b4856109a56112c1565b6109af8685612491565b6112c5565b60019150505b9392505050565b601290565b60006109ba838360405180602001604052806000815250611070565b6006546001600160a01b0316156109f857600080fd5b600680546001600160a01b0319166001600160a01b038916179055610a1c86611476565b610a8f85858080601f01602080910402602001604051908101604052809392919081815260200183838082843760009201919091525050604080516020601f890181900481028201810190925287815292508791508690819084018382808284376000920191909152506115eb92505050565b600780546001600160a01b0319166001600160a01b0383811691909117909155604051908816906000907f434a2db650703b36c824e745330d6397cdaa9ee2cc891a4938ae853e1c50b68d908290a350505050505050565b610af03361077c565b61090d5760405162461bcd60e51b815260040161099090611f69565b60006108e9610b196112c1565b848460026000610b276112c1565b6001600160a01b03908116825260208083019390935260409182016000908120918b16815292529020546109af9190612479565b610916610b666112c1565b82611390565b610b753361077c565b610b915760405162461bcd60e51b815260040161099090611f69565b610b9b8282611612565b5050565b6006546001600160a01b031681565b610bb73361077c565b610bd35760405162461bcd60e51b815260040161099090611f69565b610bdc846116d2565b15610c2957610c238483838080601f0160208091040260200160405190810160405280939291908181526020018383808284376000920191909152508892506116d8915050565b50610c33565b610c338484611706565b836001600160a01b0316336001600160a01b03167f504b363987df7fd48ba6ee9a85fc09baa8c0cc3ccd6fe9adccae2ccba2cf00b1858585604051610c7a9392919061241c565b60405180910390a350505050565b6001600160a01b031660009081526001602052604090205490565b610cab6112c1565b6000546001600160a01b03908116911614610cd85760405162461bcd60e51b8152600401610990906121a8565b610ce26000611476565b565b6000610cf2836107376112c1565b905081811015610d145760405162461bcd60e51b8152600401610990906121dd565b610d2a83610d206112c1565b6109af8585612491565b610d348383611390565b505050565b6000546001600160a01b031690565b610d513361077c565b610d6d5760405162461bcd60e51b815260040161099090611f69565b610b9b8282611390565b606060058054610851906124d8565b610d8f3361077c565b610dab5760405162461bcd60e51b815260040161099090611f69565b610d348383836114d1565b6007546001600160a01b031681565b60008060026000610dd46112c1565b6001600160a01b0390811682526020808301939093526040918201600090812091881681529252902054905082811015610e205760405162461bcd60e51b815260040161099090612388565b610e36610e2b6112c1565b856109af8685612491565b5060019392505050565b60006108e9610e4d6112c1565b84846114d1565b610e5d3361077c565b610e795760405162461bcd60e51b815260040161099090611f69565b6006546040516001600160a01b038084169216907f434a2db650703b36c824e745330d6397cdaa9ee2cc891a4938ae853e1c50b68d90600090a36006546040517f01faf36c0000000000000000000000000000000000000000000000000000000081526000916001600160a01b0316906301faf36c90610f1f9030907fedde61aea0459bc05d70dd3441790ccfb6c17980a380201b00eca6f9ef50452a90600401611d04565b60206040518083038186803b158015610f3757600080fd5b505afa158015610f4b573d6000803e3d6000fd5b505050506040513d601f19601f82011682018060405250810190610f6f9190611c66565b11610f7957600080fd5b610f82816116d2565b610f8b57600080fd5b600680546001600160a01b0319166001600160a01b0392909216919091179055565b610fb56112c1565b6000546001600160a01b03908116911614610fe25760405162461bcd60e51b8152600401610990906121a8565b6110248483838080601f0160208091040260200160405190810160405280939291908181526020018383808284376000920191909152508892506116d8915050565b50836001600160a01b03167f4a0de09071d37e2800c1dcc9027a0030cd5202f3a5a766952307470adc640c578484846040516110629392919061241c565b60405180910390a250505050565b600061107c84846108d5565b61108557600080fd5b836001600160a01b0316637b04a2d061109c6112c1565b85856040518463ffffffff1660e01b81526004016110bc93929190611d40565b602060405180830381600087803b1580156110d657600080fd5b505af1925050508015611106575060408051601f3d908101601f1916820190925261110391810190611c26565b60015b6111665761111261256c565b806308c379a0141561114c5750611127612583565b80611132575061114e565b8060405162461bcd60e51b81526004016109909190611d85565b505b60405162461bcd60e51b8152600401610990906120ee565b6001600160e01b031981167f7b04a2d000000000000000000000000000000000000000000000000000000000146111af5760405162461bcd60e51b815260040161099090611e52565b505060019392505050565b6001600160a01b03918216600090815260026020908152604080832093909416825291909152205490565b6111ee3361077c565b61120a5760405162461bcd60e51b815260040161099090611f69565b6007546040516001600160a01b038084169216907f5413ae380ad3da3cce6ed6c1fcb658884e7261a3bb593a23cbc6dd8091e58d9890600090a3600780546001600160a01b0319166001600160a01b0392909216919091179055565b61126e6112c1565b6000546001600160a01b0390811691161461129b5760405162461bcd60e51b8152600401610990906121a8565b6001600160a01b03811661090d5760405162461bcd60e51b815260040161099090611eaf565b3390565b6001600160a01b0383166112eb5760405162461bcd60e51b8152600401610990906122f4565b6001600160a01b0382166113115760405162461bcd60e51b815260040161099090611f0c565b6001600160a01b0380841660008181526002602090815260408083209487168084529490915290819020849055517f8c5be1e5ebec7d5bd14f71427d1e84f3dd0314c0f7b2291e5b200ac8c7c3b9259061136c908590611d7c565b60405180910390a3505050565b60008183101561138957816109ba565b5090919050565b6001600160a01b0382166113b65760405162461bcd60e51b81526004016109909061223a565b6113c282600083610d34565b6001600160a01b038216600090815260016020526040902054818110156113fb5760405162461bcd60e51b815260040161099090611df5565b6114058282612491565b6001600160a01b03841660009081526001602052604081209190915560038054849290611433908490612491565b90915550506040516000906001600160a01b038516907fddf252ad1be2c89b69c2b068fc378daa952ba7f163c4a11628f55a4df523b3ef9061136c908690611d7c565b600080546040516001600160a01b03808516939216917f8be0079c531659141344cd1fd0a4f28419497f9722a3daafe3b4186f6b6457e091a3600080546001600160a01b0319166001600160a01b0392909216919091179055565b6001600160a01b0383166114f75760405162461bcd60e51b815260040161099090612297565b6001600160a01b03821661151d5760405162461bcd60e51b815260040161099090611d98565b611528838383610d34565b6001600160a01b038316600090815260016020526040902054818110156115615760405162461bcd60e51b815260040161099090611fa0565b61156b8282612491565b6001600160a01b0380861660009081526001602052604080822093909355908516815290812080548492906115a1908490612479565b92505081905550826001600160a01b0316846001600160a01b03167fddf252ad1be2c89b69c2b068fc378daa952ba7f163c4a11628f55a4df523b3ef84604051610c7a9190611d7c565b81516115fe90600490602085019061189b565b508051610d3490600590602084019061189b565b6001600160a01b0382166116385760405162461bcd60e51b8152600401610990906123e5565b61164460008383610d34565b80600360008282546116569190612479565b90915550506001600160a01b03821660009081526001602052604081208054839290611683908490612479565b90915550506040516001600160a01b038316906000907fddf252ad1be2c89b69c2b068fc378daa952ba7f163c4a11628f55a4df523b3ef906116c6908590611d7c565b60405180910390a35050565b3b151590565b60606116fe84848460405180606001604052806029815260200161262b602991396117a2565b949350505050565b804710156117265760405162461bcd60e51b81526004016109909061205a565b6000826001600160a01b03168260405161173f906108d2565b60006040518083038185875af1925050503d806000811461177c576040519150601f19603f3d011682016040523d82523d6000602084013e611781565b606091505b5050905080610d345760405162461bcd60e51b815260040161099090611ffd565b6060824710156117c45760405162461bcd60e51b815260040161099090612091565b6117cd856116d2565b6117e95760405162461bcd60e51b815260040161099090612351565b600080866001600160a01b031685876040516118059190611cba565b60006040518083038185875af1925050503d8060008114611842576040519150601f19603f3d011682016040523d82523d6000602084013e611847565b606091505b5091509150611857828286611862565b979650505050505050565b606083156118715750816109ba565b8251156118815782518084602001fd5b8160405162461bcd60e51b81526004016109909190611d85565b8280546118a7906124d8565b90600052602060002090601f0160209004810192826118c9576000855561190f565b82601f106118e257805160ff191683800117855561190f565b8280016001018555821561190f579182015b8281111561190f5782518255916020019190600101906118f4565b5061191b92915061191f565b5090565b5b8082111561191b5760008155600101611920565b60008083601f840112611945578182fd5b50813567ffffffffffffffff81111561195c578182fd5b60208301915083602082850101111561197457600080fd5b9250929050565b60006020828403121561198c578081fd5b81356109ba81612615565b6000602082840312156119a8578081fd5b81516109ba81612615565b600080604083850312156119c5578081fd5b82356119d081612615565b915060208301356119e081612615565b809150509250929050565b600080600080600080600060a0888a031215611a05578283fd5b8735611a1081612615565b96506020880135611a2081612615565b9550604088013567ffffffffffffffff80821115611a3c578485fd5b611a488b838c01611934565b909750955060608a0135915080821115611a60578485fd5b50611a6d8a828b01611934565b9094509250506080880135611a8181612615565b8091505092959891949750929550565b600080600060608486031215611aa5578283fd5b8335611ab081612615565b92506020840135611ac081612615565b929592945050506040919091013590565b60008060408385031215611ae3578182fd5b8235611aee81612615565b946020939093013593505050565b60008060008060608587031215611b11578384fd5b8435611b1c81612615565b935060208501359250604085013567ffffffffffffffff811115611b3e578283fd5b611b4a87828801611934565b95989497509550505050565b600080600060608486031215611b6a578283fd5b8335611b7581612615565b92506020848101359250604085013567ffffffffffffffff80821115611b99578384fd5b818701915087601f830112611bac578384fd5b813581811115611bbe57611bbe612556565b6040519150611bd6601f8201601f1916850183612513565b8082528884828501011115611be9578485fd5b808484018584013784848284010152508093505050509250925092565b600060208284031215611c17578081fd5b815180151581146109ba578182fd5b600060208284031215611c37578081fd5b81516001600160e01b0319811681146109ba578182fd5b600060208284031215611c5f578081fd5b5035919050565b600060208284031215611c77578081fd5b5051919050565b60008151808452611c968160208601602086016124a8565b601f01601f19169290920160200192915050565b6000828483379101908152919050565b60008251611ccc8184602087016124a8565b9190910192915050565b6001600160a01b0391909116815260200190565b6001600160a01b0392831681529116602082015260400190565b6001600160a01b03929092168252602082015260400190565b6001600160a01b039290921682526001600160e01b031916602082015260400190565b60006001600160a01b038516825283602083015260606040830152611d686060830184611c7e565b95945050505050565b901515815260200190565b90815260200190565b6000602082526109ba6020830184611c7e565b60208082526023908201527f45524332303a207472616e7366657220746f20746865207a65726f206164647260408201527f6573730000000000000000000000000000000000000000000000000000000000606082015260800190565b60208082526022908201527f45524332303a206275726e20616d6f756e7420657863656564732062616c616e60408201527f6365000000000000000000000000000000000000000000000000000000000000606082015260800190565b6020808252602a908201527f455243313336333a206f6e417070726f76616c526563656976656420696e766160408201527f6c696420726573756c7400000000000000000000000000000000000000000000606082015260800190565b60208082526026908201527f4f776e61626c653a206e6577206f776e657220697320746865207a65726f206160408201527f6464726573730000000000000000000000000000000000000000000000000000606082015260800190565b60208082526022908201527f45524332303a20617070726f766520746f20746865207a65726f20616464726560408201527f7373000000000000000000000000000000000000000000000000000000000000606082015260800190565b6020808252601c908201527f416363657373207265737472696374656420746f206d6f64756c657300000000604082015260600190565b60208082526026908201527f45524332303a207472616e7366657220616d6f756e742065786365656473206260408201527f616c616e63650000000000000000000000000000000000000000000000000000606082015260800190565b6020808252603a908201527f416464726573733a20756e61626c6520746f2073656e642076616c75652c207260408201527f6563697069656e74206d61792068617665207265766572746564000000000000606082015260800190565b6020808252601d908201527f416464726573733a20696e73756666696369656e742062616c616e6365000000604082015260600190565b60208082526026908201527f416464726573733a20696e73756666696369656e742062616c616e636520666f60408201527f722063616c6c0000000000000000000000000000000000000000000000000000606082015260800190565b60208082526033908201527f455243313336333a206f6e417070726f76616c5265636569766564207265766560408201527f7274656420776974686f757420726561736f6e00000000000000000000000000606082015260800190565b60208082526028908201527f45524332303a207472616e7366657220616d6f756e742065786365656473206160408201527f6c6c6f77616e6365000000000000000000000000000000000000000000000000606082015260800190565b6020808252818101527f4f776e61626c653a2063616c6c6572206973206e6f7420746865206f776e6572604082015260600190565b60208082526024908201527f45524332303a206275726e20616d6f756e74206578636565647320616c6c6f7760408201527f616e636500000000000000000000000000000000000000000000000000000000606082015260800190565b60208082526021908201527f45524332303a206275726e2066726f6d20746865207a65726f2061646472657360408201527f7300000000000000000000000000000000000000000000000000000000000000606082015260800190565b60208082526025908201527f45524332303a207472616e736665722066726f6d20746865207a65726f20616460408201527f6472657373000000000000000000000000000000000000000000000000000000606082015260800190565b60208082526024908201527f45524332303a20617070726f76652066726f6d20746865207a65726f2061646460408201527f7265737300000000000000000000000000000000000000000000000000000000606082015260800190565b6020808252601d908201527f416464726573733a2063616c6c20746f206e6f6e2d636f6e7472616374000000604082015260600190565b60208082526025908201527f45524332303a2064656372656173656420616c6c6f77616e63652062656c6f7760408201527f207a65726f000000000000000000000000000000000000000000000000000000606082015260800190565b6020808252601f908201527f45524332303a206d696e7420746f20746865207a65726f206164647265737300604082015260600190565b60008482526040602083015282604083015282846060840137818301606090810191909152601f909201601f1916010192915050565b6000838252604060208301526116fe6040830184611c7e565b60ff91909116815260200190565b6000821982111561248c5761248c612540565b500190565b6000828210156124a3576124a3612540565b500390565b60005b838110156124c35781810151838201526020016124ab565b838111156124d2576000848401525b50505050565b6002810460018216806124ec57607f821691505b6020821081141561250d57634e487b7160e01b600052602260045260246000fd5b50919050565b601f8201601f1916810167ffffffffffffffff8111828210171561253957612539612556565b6040525050565b634e487b7160e01b600052601160045260246000fd5b634e487b7160e01b600052604160045260246000fd5b600060033d11156108d257600481823e5160e01c90565b600060443d1015612593576108d2565b6040516003193d81016004833e81513d67ffffffffffffffff81602484011181841117156125c55750505050506108d2565b82850191508151818111156125df575050505050506108d2565b843d87010160208285010111156125fb575050505050506108d2565b61260a60208286010187612513565b509094505050505090565b6001600160a01b038116811461091657600080fdfe416464726573733a206c6f772d6c6576656c2063616c6c20776974682076616c7565206661696c6564a26469706673582212206c5881a25015f43dff3304abae5d7f5ef7a16326168f032a1cb5719b5062b59e64736f6c63430008010033",
  "linkReferences": {},
  "deployedLinkReferences": {}
}